:100000000C946B000C9488000C9488000C9488006D
:100010000C9488000C941F060C9488000C948800A3
:100020000C9488000C9488000C9488000C948E0525
:100030000C9488000C9488000C9488000C94880020
:100040000C9488000C9488000C9488000C94880010
:100050000C94880007634236B79BD8A71A396856B4
:1000600018AEBAAB558C1D3CB7CC5763BD6DEDFDDA
:10007000753EF6177231BF000000803F0800000097
:10008000BE922449123EABAAAA2ABECDCCCC4C3E8D
:1000900000000080BEABAAAAAA3E00000000BF007C
:1000A0000000803F0000000000084178D3BB438778
:1000B000D1133D190E3CC3BD4282AD2B3E68EC828C
:1000C00076BED98FE1A93E4C80EFFFBE01C4FF7F11
:1000D0003F000000000011241FBECFE5D8E0DEBFC6
:1000E000CDBF10E0A0E6B0E0E6E6F4E102C0059086
:1000F0000D92A039B107D9F720E0A0E9B0E001C026
:100100001D92AF3AB207E1F70E9443020C94310A04
:100110000C9400000E9474060E948D0382E00E94ED
:10012000300482E00E94140582E00E94F40440E161
:1001300057E260E070E082E00E9456040E941A02DA
:100140000E94CD010895CF93DF931F92CDB7DEB704
:100150000E94B80381111CC080E690E00E94EE016D
:1001600061E080E10E94C803853091F441E061E0E4
:10017000CE0101960E94F3038C3051F460E081E0DF
:100180000E9401028CE690E00E94EE010E9427048A
:100190000E94B80381111EC060E080E10E94C80384
:1001A0008330C1F40E940F0287E790E00E94EE01C5
:1001B00040E060E0CE0101960E94F303883051F4E4
:1001C00060E081E00E94010283E890E00E94EE017D
:1001D0000E942704FFCFCF93C82F40E060E081E466
:1001E0000E94D3024C2F441F4427441F67E081E440
:1001F0000E94D302C6FB442740F966E081E40E94D6
:10020000D302C5FB442740F965E081E40E94D30294
:10021000C4FB442740F964E081E40E94D30241E03A
:1002200061E081E40E94D30241E050E060E070E0D0
:1002300082E00E94380540E061E081E40E94D30240
:1002400041E050E060E070E082E00E943805C3FBCE
:10025000442740F967E081E40E94D302C2FB4427AF
:1002600040F966E081E40E94D302C1FB442740F9D3
:1002700065E081E40E94D3024C2F417064E081E488
:100280000E94D30241E061E081E40E94D30241E098
:1002900050E060E070E082E00E94380540E061E0FC
:1002A00081E40E94D30241E050E060E070E082E02F
:1002B0000E943805CF910895CF93C82F41E060E0A8
:1002C00081E40E94D3024C2F441F4427441F67E05F
:1002D00081E40E94D302C6FB442740F966E081E432
:1002E0000E94D302C5FB442740F965E081E40E94E7
:1002F000D302C4FB442740F964E081E40E94D302A6
:1003000041E061E081E40E94D30241E050E060E01E
:1003100070E082E00E94380540E061E081E40E94E4
:10032000D30241E050E060E070E082E00E943805D6
:10033000C3FB442740F967E081E40E94D302C2FB7B
:10034000442740F966E081E40E94D302C1FB4427C0
:1003500040F965E081E40E94D3024C2F417064E0D3
:1003600081E40E94D30241E061E081E40E94D30273
:1003700041E050E060E070E082E00E94380540E03B
:1003800061E081E40E94D30241E050E060E070E06F
:1003900082E00E943805CF91089542E350E060E08A
:1003A00070E082E00E94380582E00E94EB0088E263
:1003B0000E94EB008CE00E94EB0081E00E94EB00C9
:1003C00041E050E060E070E082E00E94380586E0A5
:1003D0000E94EB0008950E945C0108950F931F9303
:1003E000CF938C01C0E003C00E94EB01CF5FF80106
:1003F000EC0FF11D80818111F7CFCF911F910F91EB
:100400000895811105C0862F80680E94EB00089531
:10041000813021F480EC860F0E94EB00089581E08A
:100420000E94EB0041E050E060E070E082E00E945A
:100430003805089541E060E081E40E94480241E00F
:1004400061E081E40E94480241E062E081E40E94B0
:10045000480241E063E081E40E94480241E064E038
:1004600081E40E94480241E065E081E40E94480284
:1004700041E066E081E40E94480241E067E081E4F7
:100480000E94480208950E948A000E94A300FFCFA4
:10049000683008F080C0442321F0413009F440C0A6
:1004A0007CC08234B1F018F4813431F078C08334E8
:1004B000E9F0843441F173C02AB381E090E002C0D6
:1004C000880F991F6A95E2F7809582238ABB80E0A6
:1004D000089527B381E090E002C0880F991F6A95C4
:1004E000E2F78095822387BB80E0089524B381E002
:1004F00090E002C0880F991F6A95E2F780958223E9
:1005000084BB80E0089521B381E090E002C0880FB1
:10051000991F6A95E2F78095822381BB80E0089558
:100520008234A9F018F4813431F03BC08334D9F01F
:10053000843429F136C02AB381E090E002C0880FEC
:10054000991F6A95E2F7822B8ABB80E0089527B352
:1005500081E090E002C0880F991F6A95E2F7822B34
:1005600087BB80E0089524B381E090E002C0880F4B
:10057000991F6A95E2F7822B84BB80E0089521B32E
:1005800081E090E002C0880F991F6A95E2F7822B04
:1005900081BB80E0089582E0089584E0089581E0C1
:1005A000089581E00895683008F080C0442321F068
:1005B000413009F440C07CC08234B1F018F4813479
:1005C00031F078C08334E9F0843441F173C02BB347
:1005D00081E090E002C0880F991F6A95E2F780954C
:1005E00082238BBB80E0089528B381E090E002C0B5
:1005F000880F991F6A95E2F78095822388BB80E077
:10060000089525B381E090E002C0880F991F6A9594
:10061000E2F78095822385BB80E0089522B381E0D4
:1006200090E002C0880F991F6A95E2F780958223B7
:1006300082BB80E008958234A9F018F4813431F04F
:100640003BC08334D9F0843429F136C02BB381E028
:1006500090E002C0880F991F6A95E2F7822B8BBB4E
:1006600080E0089528B381E090E002C0880F991FD0
:100670006A95E2F7822B88BB80E0089525B381E07C
:1006800090E002C0880F991F6A95E2F7822B85BB24
:1006900080E0089522B381E090E002C0880F991FA6
:1006A0006A95E2F7822B82BB80E0089582E008958C
:1006B00083E0089581E0089581E0089590E094B981
:1006C00083B9089590E0019694B983B9089590E0B4
:1006D00094B983B984E890E097BF86BF86B797B78F
:1006E00087FFFCCF089581B192B1887F089584EC93
:1006F00090E097BF86BF86B797B787FFFCCF83B1DF
:1007000094B1089584E890E097BF86BF86B797B705
:1007100087FFFCCF83B194B1089512B811B861B1CD
:1007200072B16370772780E090E00E9497079B0189
:10073000AC0160E070E080E890E40E9425089B0135
:10074000AC010E948A069B01AC0160E070E080EC85
:1007500091E40E94F6060E94680771B960B982E0D0
:1007600090E093B982B984E090E097BF86BF089586
:1007700084EA90E097BF86BF86B797B787FFFCCF24
:100780000E947303883011F081E0089580E008959D
:10079000611103C00E945E0304C0613011F40E9425
:1007A000620384E890E097BF86BF86B797B787FF5C
:1007B000FCCF0E947303883171F00E947303803272
:1007C00061F00E947303803451F00E9473038834F7
:1007D00041F486E0089583E0089584E0089585E07B
:1007E000089587E00895CF93DF93EC0161110DC068
:1007F00088810E9467030E9473038832F1F00E948F
:1008000073038033E1F489E01FC06130A9F4411122
:1008100004C00E947703888305C0413019F40E9408
:10082000820388830E947303803559F00E9473030A
:10083000883549F48CE008C007C088E005C08AE02C
:1008400003C08BE001C08DE0DF91CF91089584E972
:1008500090E097BF86BF86B797B784FDFCCF089519
:1008600081110EC083B7877F83BF83B78F7B83BF20
:1008700089B7816089BF8FB780688FBF80E0089596
:10088000813081F0823081F485B5877F85BD85B563
:100890008F7B85BD89B7806489BF8FB780688FBF24
:1008A00080E0089580E0089581E008950F931F93FC
:1008B00081113FC0A8EEB3E09A01AB010E94260A65
:1008C0008B019C01689413F8369527951795079529
:1008D0001694D1F7DC01CB01072E7CE0B695A795E5
:1008E000979587957A95D1F7702D8093A70090936F
:1008F000A800A093A900B093AA000093A60000232B
:1009000009F468C0019502BF8091A7009091A800EA
:10091000A091A900B091AA000196A11DB11D8093DC
:10092000A7009093A800A093A900B093AA0080E02C
:1009300058C0813009F450C0823009F04FC0A8EE91
:10094000B3E09A01AB010E94260A8B019C016894D6
:1009500013F836952795179507951694D1F7AB019F
:10096000BC01032E3CE076956795579547953A95DF
:10097000D1F7302D4093A2005093A3006093A400C0
:100980007093A500D901C8019927AA27BB27809396
:100990009E0090939F00A093A000B093A1000097A9
:1009A000A105B105E9F0819584BD8091A2009091E7
:1009B000A300A091A400B091A5000196A11DB11DB6
:1009C0008093A2009093A300A093A400B093A500ED
:1009D00080E007C080E005C080E003C081E001C086
:1009E00080E01F910F91089581110BC083B784603F
:1009F00083BF83B78D7F83BF83B78E7F83BF80E044
:100A00000895813069F0823069F485B5846085BDD0
:100A100085B5826085BD85B58E7F85BD80E00895F2
:100A200080E0089581E00895811107C089B78E7F25
:100A300089BF89B78D7F89BF0AC0813041F082307C
:100A400031F489B78F7B89BF89B78F7789BF81E000
:100A50000895811104C089B7816089BF07C08130C2
:100A600029F0823019F489B7806489BF81E0089544
:100A7000CF92DF92EF92FF920F931F93882309F496
:100A800045C0813009F442C0823009F03FC06A019C
:100A90007B010E941405A8EEB3E0A70196010E9415
:100AA000260A6B017C01689413F8F694E794D794B6
:100AB000C7941694D1F78B019C010F2EFCE036955C
:100AC000279517950795FA95D1F7F02DCC2051F081
:100AD0000F5F1F4F2F4F3F4FC194C4BC40E050E009
:100AE000BA010CC014BCFACF08B606FEFDCF88B719
:100AF000806488BF4F5F5F4F6F4F7F4F4017510734
:100B00006207730788F382E00E94290581E01F9144
:100B10000F91FF90EF90DF90CF9008951F920F926A
:100B20000FB60F9211242F933F934F935F936F93C0
:100B30007F938F939F93AF93BF93EF93FF93809196
:100B40009900811135C08091950090919600A091F7
:100B50009700B09198000196A11DB11D809395005A
:100B600090939600A0939700B09398004091A700AF
:100B70005091A8006091A9007091AA008417950770
:100B8000A607B70709F04AC0E0919C00F0919D00CC
:100B9000309709F0099510929500109296001092E6
:100BA0009700109298008091A600819582BF36C070
:100BB000809194008823C9F040E064E084E40E94BE
:100BC000D30240E065E084E40E94D3028091AD004E
:100BD000819582BF8091AD009091AE008F3F9105CD
:100BE00009F0E0F41092940019C041E064E084E45C
:100BF0000E94D30241E065E084E40E94D302809128
:100C0000AB00819582BF8091AB009091AC008F3F8B
:100C1000910509F018F481E080939400FF91EF9121
:100C2000BF91AF919F918F917F916F915F914F9104
:100C30003F912F910F900FBE0F901F9018951F920C
:100C40000F920FB60F9211242F933F934F935F9300
:100C50006F937F938F939F93AF93BF93EF93FF9384
:100C60008091900090919100A0919200B09193009A
:100C70000196A11DB11D8093900090939100A093C7
:100C80009200B09393004091A2005091A300609114
:100C9000A4007091A50084179507A607B70799F4DB
:100CA000E0919A00F0919B00309709F0099510921D
:100CB00090001092910010929200109293008091F7
:100CC0009E00819582BFFF91EF91BF91AF919F915F
:100CD0008F917F916F915F914F913F912F910F90E5
:100CE0000FBE0F901F90189583E389B910BC80B593
:100CF000826080BD80B5846080BD80B5806880BD25
:100D000088E18AB98AB180618AB98AB188608AB972
:100D100008955058BB27AA270E94A1060C94EB0700
:100D20000E94DD0738F00E94E40720F039F49F3F6D
:100D300019F426F40C94DA070EF4E095E7FB0C9412
:100D4000D407E92F0E94FC0758F3BA17620773070C
:100D50008407950720F079F4A6F50C941E080EF48C
:100D6000E0950B2EBA2FA02D0B01B90190010C01BB
:100D7000CA01A0011124FF27591B99F0593F50F4D3
:100D8000503E68F11A16F040A22F232F342F44272B
:100D9000585FF3CF469537952795A795F040539523
:100DA000C9F77EF41F16BA0B620B730B840BBAF0F3
:100DB0009150A1F0FF0FBB1F661F771F881FC2F75E
:100DC0000EC0BA0F621F731F841F48F48795779572
:100DD0006795B795F7959E3F08F0B0CF9395880F2C
:100DE00008F09927EE0F9795879508950E940A07B6
:100DF0000C94EB070E94E40758F00E94DD0740F0D6
:100E000029F45F3F29F00C94D40751110C941F086A
:100E10000C94DA070E94FC0768F39923B1F3552379
:100E200091F3951B550BBB27AA27621773078407FD
:100E300038F09F5F5F4F220F331F441FAA1FA9F393
:100E400035D00E2E3AF0E0E832D091505040E69581
:100E5000001CCAF72BD0FE2F29D0660F771F881FE2
:100E6000BB1F261737074807AB07B0E809F0BB0BD5
:100E7000802DBF01FF2793585F4F3AF09E3F5105E9
:100E800078F00C94D4070C941F085F3FE4F3983E6D
:100E9000D4F3869577956795B795F7959F5FC9F7D2
:100EA000880F911D9695879597F90895E1E0660F53
:100EB000771F881FBB1F621773078407BA0720F0CC
:100EC000621B730B840BBA0BEE1F88F7E095089535
:100ED0000E94040888F09F5798F0B92F9927B751BE
:100EE000B0F0E1F0660F771F881F991F1AF0BA95CE
:100EF000C9F714C0B13091F00E941E08B1E0089506
:100F00000C941E08672F782F8827B85F39F0B93FF7
:100F1000CCF3869577956795B395D9F73EF4909580
:100F20008095709561957F4F8F4F9F4F0895E894FE
:100F300009C097FB3EF490958095709561957F4F21
:100F40008F4F9F4F9923A9F0F92F96E9BB279395CF
:100F5000F695879577956795B795F111F8CFFAF4DF
:100F6000BB0F11F460FF1BC06F5F7F4F8F4F9F4F10
:100F700016C0882311F096E911C0772321F09EE86E
:100F8000872F762F05C0662371F096E8862F70E0D4
:100F900060E02AF09A95660F771F881FDAF7880FAE
:100FA0009695879597F9089597F99F6780E870E07F
:100FB00060E008959FEF80EC089500240A941616CF
:100FC000170618060906089500240A941216130637
:100FD000140605060895092E0394000C11F48823C5
:100FE00052F0BB0F40F4BF2B11F460FF04C06F5FE1
:100FF0007F4F8F4F9F4F089557FD9058440F551FB7
:1010000059F05F3F71F04795880F97FB991F61F08A
:101010009F3F79F087950895121613061406551F01
:10102000F2CF4695F1DF08C0161617061806991F6D
:10103000F1CF86957105610508940895E894BB2762
:1010400066277727CB0197F90895FA01EE0FFF1F66
:10105000309621053105A1F16115710561F48038E3
:10106000BFE39B0749F168949038810561F08038AF
:10107000BFEF9B0741F099234AF5FF3FE10531059A
:10108000210519F1E8940894E795D901AA2329F4D8
:10109000AB2FBE2FF85FD0F310C0FF5F70F4A695A2
:1010A000E0F7F73950F019F0FF3A38F49F779F9343
:1010B0000DD00F9007FC9058089546F00C94DA0775
:1010C00060E070E080E89FE308954FE79F775F93CB
:1010D0004F933F932F930E9420092F913F914F915F
:1010E0005F910E949C090C947D0829F416F00C94E1
:1010F000D4070C941E080C94DA070E940408A8F385
:101100009638A0F707F80F92E8942BE33AEA48EBF9
:101110005FE70E94B2090F920F920F924DB75EB730
:101120000F920E946809E4E5F0E00E94AF084F9139
:101130005F91EF91FF91E595EE1FFF1F49F0FE577C
:10114000E0684427EE0F441FFA95E1F74195550BEF
:101150000E94E2080F9007FE0C94D6080895DF93D2
:10116000CF931F930F93FF92EF92DF927B018C013D
:10117000689406C0DA2EEF010E94AF09FE01E894E0
:10118000A5912591359145915591A6F3EF010E94C6
:10119000A106FE019701A801DA9469F7DF90EF90AC
:1011A000FF900F911F91CF91DF9108959B01AC01AA
:1011B00060E070E080E89FE30C94F6060C94D4079E
:1011C0000C94090A0E940408D8F39923C9F3940FD8
:1011D000511DA3F39150504094F059F0882332F000
:1011E000660F771F881F91505040C1F79E3F5105F1
:1011F0002CF7880F911D9695879597F908955F3F75
:10120000ACF0983E9CF0BB27869577956795B7958F
:1012100008F4B1609395C1F7BB0F58F711F460FF64
:10122000E8CF6F5F7F4F8F4F9F4FE3CF0C941F0826
:1012300016F00C94090A0C94DA0768940C94D407FD
:101240000E940408A8F39923C1F3AEF3DF93CF9370
:101250001F930F93FF92C92FDD2788232AF0219730
:10126000660F771F881FDAF720E030E040E85FEB79
:101270009FE3883920F0803E38F021968F770E94D6
:101280008A06ECE7F0E004C00E948A06E9EAF0E092
:101290000E94AF088B01BE01EC01FB2E6F57710954
:1012A0007595771F880B990B0E94990728E132E703
:1012B00041E35FE30E94AF09AF2D9801AE01FF90BB
:1012C0000F911F91CF91DF910E94A1060C94EB0723
:1012D000FA01DC01AA0FBB1F9B01AC01BF5728F428
:1012E000222733274427507820C0B75190F4AB2FE2
:1012F0000024469537952795011CA395D2F300202D
:1013000071F0220F331F441FB395DAF30ED00C9403
:10131000890661307105A0E88A07B94630F49B015F
:10132000AC016627772788279078309621F02083B4
:1013300031834283538308950E94AF090C94EB07D5
:101340000E94DD0738F00E94E40720F0952311F099
:101350000C94D4070C94DA0711240C941F080E94F3
:10136000FC0770F3959FC1F3950F50E0551F629FE6
:10137000F001729FBB27F00DB11D639FAA27F00DEE
:10138000B11DAA1F649F6627B00DA11D661F829F15
:101390002227B00DA11D621F739FB00DA11D621FFA
:1013A000839FA00D611D221F749F3327A00D611D17
:1013B000231F849F600D211D822F762F6A2F1124F9
:1013C0009F5750409AF0F1F088234AF0EE0FFF1F2C
:1013D000BB1F661F771F881F91505040A9F79E3F83
:1013E000510580F00C94D4070C941F085F3FE4F380
:1013F000983ED4F3869577956795B795F795E795D9
:101400009F5FC1F7FE2B880F911D9695879597F9E1
:1014100008959F3F31F0915020F487957795679517
:10142000B795880F911D9695879597F90895A29F76
:10143000B001B39FC001A39F700D811D1124911DA8
:10144000B29F700D811D1124911D08950E94170AED
:10145000A59F900DB49F900DA49F800D911D112408
:061460000895F894FFCF8F
:101466007374617274204932435F310073746F7014
:10147600204932435F3100737461727420493243EC
:101486005F320073746F7020204932435F32000070
:00000001FF
