S00C0000434152442E73726563FE
S11300000C942A000C9447000C9447000C9447006D
S11300100C9447000C9427020C9447000C9447005E
S11300200C9447000C9447000C9447000C949601E0
S11300300C9447000C9447000C9447000C94470020
S11300400C9447000C9447000C9447000C94470010
S11300500C94470011241FBECFE5D8E0DEBFCDBF0E
S113006010E0A0E6B0E0ECEFF4E002C005900D92E1
S1130070A836B107D9F720E0A8E6B0E001C01D9288
S1130080A738B207E1F70E9449000C947C020C9453
S113009000000E946A0180E690E00E94850182E6E9
S11300A090E00E948901FFCF683008F080C04423AB
S11300B021F0413009F440C07CC08234B1F018F41E
S11300C0813431F078C08334E9F0843441F173C071
S11300D02AB381E090E002C0880F991F6A95E2F785
S11300E0809582238ABB80E0089527B381E090E065
S11300F002C0880F991F6A95E2F78095822387BB17
S113010080E0089524B381E090E002C0880F991F35
S11301106A95E2F78095822384BB80E0089521B339
S113012081E090E002C0880F991F6A95E2F78095FC
S1130130822381BB80E008958234A9F018F48134CD
S113014031F03BC08334D9F0843429F136C02AB36A
S113015081E090E002C0880F991F6A95E2F7822B34
S11301608ABB80E0089527B381E090E002C0880F45
S1130170991F6A95E2F7822B87BB80E0089524B328
S113018081E090E002C0880F991F6A95E2F7822B04
S113019084BB80E0089521B381E090E002C0880F21
S11301A0991F6A95E2F7822B81BB80E0089582E073
S11301B0089584E0089581E0089581E00895683009
S11301C008F080C0442321F0413009F440C07CC0D1
S11301D08234B1F018F4813431F078C08334E9F01A
S11301E0843441F173C02BB381E090E002C0880FE6
S11301F0991F6A95E2F7809582238BBB80E008956E
S113020028B381E090E002C0880F991F6A95E2F755
S11302108095822388BB80E0089525B381E090E037
S113022002C0880F991F6A95E2F78095822385BBE7
S113023080E0089522B381E090E002C0880F991F06
S11302406A95E2F78095822382BB80E00895823428
S1130250A9F018F4813431F03BC08334D9F08434EC
S113026029F136C02BB381E090E002C0880F991FBA
S11302706A95E2F7822B8BBB80E0089528B381E076
S113028090E002C0880F991F6A95E2F7822B88BB21
S113029080E0089525B381E090E002C0880F991FA3
S11302A06A95E2F7822B85BB80E0089522B381E052
S11302B090E002C0880F991F6A95E2F7822B82BBF7
S11302C080E0089582E0089583E0089581E0089530
S11302D081E0089541E064E082E40E94540041E03A
S11302E065E082E40E94540041E067E082E40E94F9
S11302F0540040E066E082E40E9454008DB18064C2
S11303008DB98DB180618DB908958FB9779BFECF7A
S11303100895CF93DF93EC0103C00E9485012196D9
S113032088818111FACFDF91CF9108951F920F92A6
S11303300FB60F9211242F933F934F935F936F93B4
S11303407F938F939F93AF93BF93EF93FF9380918A
S11303507100811135C080916D0090916E00A09163
S11303606F00B09170000196A11DB11D80936D00C6
S113037090936E00A0936F00B093700040917F0043
S113038050918000609181007091820084179507DC
S1130390A607B70709F04AC0E0917400F091750010
S11303A0309709F0099510926D0010926E0010922A
S11303B06F001092700080917E00819582BF36C0DC
S11303C080916C008823C9F040E064E084E40E94DA
S11303D0DF0040E065E084E40E94DF008091850056
S11303E0819582BF80918500909186008F3F910511
S11303F009F0E0F410926C0019C041E064E084E478
S11304000E94DF0041E065E084E40E94DF00809107
S11304108300819582BF80918300909184008F3FF7
S1130420910509F018F481E080936C00FF91EF913D
S1130430BF91AF919F918F917F916F915F914F91F8
S11304403F912F910F900FBE0F901F9018951F9200
S11304500F920FB60F9211242F933F934F935F93F4
S11304606F937F938F939F93AF93BF93EF93FF9378
S11304708091680090916900A0916A00B0916B002E
S11304800196A11DB11D8093680090936900A0930B
S11304906A00B0936B0040917A0050917B006091A8
S11304A07C0070917D0084179507A607B70799F41F
S11304B0E0917200F0917300309709F00995109261
S11304C068001092690010926A0010926B0080918B
S11304D07600819582BFFF91EF91BF91AF919F917B
S11304E08F917F916F915F914F913F912F910F90D9
S10F04F00FBE0F901F901895F894FFCFDA
S10B04FC6D006D6F6D656E006B
S9030000FC
