:100000000C942A000C943C000C943C000C943C0092
:100010000C943C000C945B010C943C000C943C0050
:100020000C943C000C943C000C943C000C94CA00D2
:100030000C943C000C943C000C943C000C943C0050
:100040000C943C000C943C000C943C000C943C0040
:100050000C943C0011241FBECFE5D8E0DEBFCDBF1D
:1000600020E0A0E6B0E001C01D92AF37B207E1F793
:100070000E943E000C94B0010C940000FFCF683049
:1000800008F080C0442321F0413009F440C07CC016
:100090008234B1F018F4813431F078C08334E9F05F
:1000A000843441F173C02BB381E090E002C0880F2B
:1000B000991F6A95E2F7809582238BBB80E00895B3
:1000C00028B381E090E002C0880F991F6A95E2F79B
:1000D0008095822388BB80E0089525B381E090E07D
:1000E00002C0880F991F6A95E2F78095822385BB2D
:1000F00080E0089522B381E090E002C0880F991F4C
:100100006A95E2F78095822382BB80E0089582346D
:10011000A9F018F4813431F03BC08334D9F0843431
:1001200029F136C02BB381E090E002C0880F991FFF
:100130006A95E2F7822B8BBB80E0089528B381E0BB
:1001400090E002C0880F991F6A95E2F7822B88BB66
:1001500080E0089525B381E090E002C0880F991FE8
:100160006A95E2F7822B85BB80E0089522B381E097
:1001700090E002C0880F991F6A95E2F7822B82BB3C
:1001800080E0089582E0089583E0089581E0089575
:1001900081E008951F920F920FB60F9211242F93B2
:1001A0003F934F935F936F937F938F939F93AF93FF
:1001B000BF93EF93FF9380916900811135C08091C7
:1001C000650090916600A0916700B091680001966B
:1001D000A11DB11D8093650090936600A0936700F8
:1001E000B093680040917700509178006091790059
:1001F00070917A0084179507A607B70709F04AC0DF
:10020000E0916C00F0916D00309709F00995109223
:10021000650010926600109267001092680080914D
:100220007600819582BF36C0809164008823C9F032
:1002300040E064E084E40E943F0040E065E084E444
:100240000E943F0080917D00819582BF80917D005A
:1002500090917E008F3F910509F0E0F410926400C8
:1002600019C041E064E084E40E943F0041E065E0A1
:1002700084E40E943F0080917B00819582BF809141
:100280007B0090917C008F3F910509F018F481E08C
:1002900080936400FF91EF91BF91AF919F918F91F7
:1002A0007F916F915F914F913F912F910F900FBE72
:1002B0000F901F9018951F920F920FB60F92112456
:1002C0002F933F934F935F936F937F938F939F935E
:1002D000AF93BF93EF93FF93809160009091610083
:1002E000A0916200B09163000196A11DB11D8093A1
:1002F000600090936100A0936200B093630040910E
:1003000072005091730060917400709175008417B1
:100310009507A607B70799F4E0916A00F0916B0082
:10032000309709F0099510926000109261001092C8
:1003300062001092630080916E00819582BFFF91F0
:10034000EF91BF91AF919F918F917F916F915F914D
:100350004F913F912F910F900FBE0F901F901895C6
:04036000F894FFCF3F
:00000001FF
