:100000000C942A000C9447000C9447000C94470071
:100010000C9447000C946A070C9447000C9447001A
:100020000C9447000C9447000C9447000C94D9069C
:100030000C9447000C9447000C9447000C94470024
:100040000C9447000C9447000C9447000C94470014
:100050000C94470011241FBECFE5D8E0DEBFCDBF12
:1000600011E0A0E6B0E0EAE2F0E102C005900D92F6
:10007000A234B107D9F721E0A2E4B1E001C01D929A
:10008000A336B207E1F70E940E040C9413080C94F7
:10009000000082E00E94190682E00E945F0682E072
:1000A0000E943F060E94CD030E94AF030E94F60308
:1000B0000E94840244E650E060E070E082E00E942A
:1000C00083060E94BF0744E650E060E070E082E0F3
:1000D0000E9483060E94EE0544E650E060E070E076
:1000E00082E00E9483060E940E0607C04AE050E0AC
:1000F00060E070E082E00E9483068AEA0E941406B3
:100100008535A1F707C04AE050E060E070E082E08A
:100110000E9483068AEA0E9414068535A1F744E608
:1001200050E060E070E082E00E94830608951F9333
:10013000CF93DF931F92CDB7DEB7198210E112C0C3
:10014000BE016F5F7F4F812F90E00E94B6024AE0B0
:1001500050E060E070E082E00E94830689818F3F7A
:1001600019F41F5F103460F389818F3F11F081E033
:1001700001C080E00F90DF91CF911F910895CF9340
:10018000DF93CDB7DEB7A1970FB6F894DEBF0FBEF1
:10019000CDBFFE01319685E1DF011D928A95E9F719
:1001A00086E07596DF01982F1D929A95E9F73696AD
:1001B000DF011D928A95E9F70E949700813019F4BA
:1001C0008093430103C082E0809343018091430107
:1001D000813009F4D9C08230C9F780914201813061
:1001E000E1F120F0823009F443C0F0CF80E690E0E6
:1001F0000E94DF0700E010E014C00E94DB07182F08
:100200000CC0812F0E94D707E1E0F0E0EC0FFD1F4A
:10021000E00FF11D10830F5F10E080ED810F8A3039
:1002200080F31D3051F78DE00E94D7074AE050E07F
:1002300060E070E082E00E9483060051043028F004
:1002400087E790E00E94DF07C1CF8BE890E00E9433
:10025000DF0781E080934201B9CFBE016F5F7F4F1E
:1002600080E190E00E94F00282E080934201AECFF4
:1002700089E990E00E94DF0700E01BC00E94DB07D5
:10028000182F13C08AE20E94D7074AE050E060E0CE
:1002900070E082E00E948306E6E1F0E0EC0FFD1FD3
:1002A000E00FF11D10830F5F10E080ED810F8A30A9
:1002B00048F3043018F38DE00E94D7074AE050E07D
:1002C00060E070E082E00E9483068CED90E00E9486
:1002D000DF0700E01BC00E94DB07182F13C08AE273
:1002E0000E94D7074AE050E060E070E082E00E94A0
:1002F0008306ECE1F0E0EC0FFD1FE00FF11D108331
:100300000F5F10E080ED810F8A3048F3043018F35E
:100310008DE00E94D7074AE050E060E070E082E0A4
:100320000E94830640E020E014C0822F90E0E6E1C6
:10033000F0E0EC0FFD1FE80FF91F3081ECE1F0E079
:10034000EC0FFD1FE80FF91F8081381301C04F5FCC
:100350002F5F243050F3443061F084EF90E00E942E
:10036000DF074AE050E060E070E082E00E94830630
:100370002DCFBE016A5E7F4F80E390E00E94F002C5
:1003800081E08093430122CF8FEF90E00E94DF074E
:100390000E94DB07182F8FEC810F8230C8F7812F66
:1003A0000E94D7074AE050E060E070E082E00E94DF
:1003B00083068DE00E94D7074AE050E060E070E0DD
:1003C00082E00E948306113309F095C00E94FC036D
:1003D000BE016F5F7F4F80E190E00E9415034AE00D
:1003E00050E060E070E082E00E948306BE016A5E39
:1003F0007F4F80E390E00E9415034AE050E060E008
:1004000070E082E00E94830607C04AE050E060E0AE
:1004100070E082E00E9483068DED0E9414068D3DFF
:10042000A1F310E00CC00E9414068B3B09F41F5F7F
:100430004AE050E060E070E082E00E948306E1E084
:10044000F0E0EC0FFD1FE10FF11D80818111EBCF7A
:1004500007C04AE050E060E070E082E00E9483065E
:1004600080E00E9414068B3BA1F307C04AE050E0F5
:1004700060E070E082E00E9483068DED0E94140629
:100480008D3DA1F310E013C0E6E1F0E0EC0FFD1F9D
:10049000E10FF11D80810E9414068C3C09F41F5F5E
:1004A0004AE050E060E070E082E00E948306143091
:1004B00058F307C04AE050E060E070E082E00E943C
:1004C000830680E00E9414068C3CA1F348E853E1C7
:1004D00060E070E082E00E94830607C044E650E0DE
:1004E00060E070E082E00E9483068DED0E941406B9
:1004F0008D3DA1F76BCE123309F068CE82E0809378
:1005000043011092420162CE0E94580508951F9344
:10051000CF93DF93D82FC92F162F0E946705811123
:1005200020C060E080EA0E9487058330D1F440E07B
:1005300060E08C2F90E00E94B205883091F440E09A
:1005400060E08D2F90E00E94B205883051F440E0C9
:1005500060E0812F90E00E94B205883011F40E9483
:10056000E50580E0DF91CF911F9108950F931F93D0
:10057000CF93DF93D82FC92F8B010E94670581117C
:1005800029C060E080EA0E948705833019F540E0C9
:1005900060E08C2F90E00E94B2058830D9F440E0F2
:1005A00060E08D2F90E00E94B205883099F40E949F
:1005B000770581110FC061E080EA0E9487058530D0
:1005C00049F441E061E0C8010E94B2058C3011F4A9
:1005D0000E94E50580E0DF91CF911F910F91089572
:1005E000EF92FF920F931F93CF937B01C0E00EC059
:1005F0008C010F5F1F4F0E94870244E150E060E0D2
:1006000070E082E00E948306CF5FC801F701EC0F23
:10061000F11D60816111ECCF0E94870280E0CF91D3
:100620001F910F91FF90EF900895CF92DF92EF927C
:10063000FF920F931F93CF936B01C0E086010C0FC5
:10064000111D7C012FEFE21AF20AB8010E94B602D6
:100650004EE150E060E070E082E00E948306CF5FF0
:10066000F8012081C7012111E9CF80E0CF911F91CE
:100670000F91FF90EF90DF90CF900895CF93C82F08
:1006800040E061E081E40E949E044C2F441F442717
:10069000441F67E081E40E949E04C6FB442740F9A2
:1006A00066E081E40E949E04C5FB442740F965E0B2
:1006B00081E40E949E04C4FB442740F964E081E485
:1006C0000E949E0441E063E081E40E949E0441E0B8
:1006D00050E060E070E082E00E94830640E063E06A
:1006E00081E40E949E0441E050E060E070E082E01E
:1006F0000E948306C3FB442740F967E081E40E941F
:100700009E04C2FB442740F966E081E40E949E04F7
:10071000C1FB442740F965E081E40E949E044C2F10
:10072000417064E081E40E949E0441E063E081E462
:100730000E949E0441E050E060E070E082E00E9490
:10074000830640E063E081E40E949E0441E050E0C3
:1007500060E070E082E00E948306CF91089542E35A
:1007600050E060E070E082E00E94830682E00E9438
:100770003E0388E20E943E038CE00E943E0381E03B
:100780000E943E0341E050E060E070E082E00E94A1
:10079000830686E00E943E03089541E060E081E424
:1007A0000E94130441E061E081E40E94130441E0EF
:1007B00062E081E40E94130441E063E081E40E946E
:1007C000130441E064E081E40E94130441E065E029
:1007D00081E40E94130441E066E081E40E94130476
:1007E00041E067E081E40E941304089541E060E085
:1007F00082E40E941304089541E060E082E40E94D4
:100800009E0448EC50E060E070E082E00E948306C5
:1008100040E060E082E40E949E0408950E94490046
:100820000E94BF00FFCF683008F080C0442321F051
:10083000413009F440C07CC08234B1F018F48134F6
:1008400031F078C08334E9F0843441F173C02AB3C5
:1008500081E090E002C0880F991F6A95E2F78095C9
:1008600082238ABB80E0089527B381E090E002C034
:10087000880F991F6A95E2F78095822387BB80E0F5
:10088000089524B381E090E002C0880F991F6A9513
:10089000E2F78095822384BB80E0089521B381E054
:1008A00090E002C0880F991F6A95E2F78095822335
:1008B00081BB80E008958234A9F018F4813431F0CE
:1008C0003BC08334D9F0843429F136C02AB381E0A7
:1008D00090E002C0880F991F6A95E2F7822B8ABBCD
:1008E00080E0089527B381E090E002C0880F991F4F
:1008F0006A95E2F7822B87BB80E0089524B381E0FC
:1009000090E002C0880F991F6A95E2F7822B84BBA2
:1009100080E0089521B381E090E002C0880F991F24
:100920006A95E2F7822B81BB80E0089582E008950A
:1009300084E0089581E0089581E00895683008F02A
:1009400080C0442321F0413009F440C07CC082348F
:10095000B1F018F4813431F078C08334E9F0843494
:1009600041F173C02BB381E090E002C0880F991F62
:100970006A95E2F7809582238BBB80E0089528B3C7
:1009800081E090E002C0880F991F6A95E2F7809598
:10099000822388BB80E0089525B381E090E002C007
:1009A000880F991F6A95E2F78095822385BB80E0C6
:1009B000089522B381E090E002C0880F991F6A95E4
:1009C000E2F78095822382BB80E008958234A9F00B
:1009D00018F4813431F03BC08334D9F0843429F1E8
:1009E00036C02BB381E090E002C0880F991F6A9552
:1009F000E2F7822B8BBB80E0089528B381E090E082
:100A000002C0880F991F6A95E2F7822B88BB80E0AD
:100A1000089525B381E090E002C0880F991F6A9580
:100A2000E2F7822B85BB80E0089522B381E090E05D
:100A300002C0880F991F6A95E2F7822B82BB80E083
:100A4000089582E0089583E0089581E0089581E0AB
:100A5000089581B192B1887F089590E094B983B9E7
:100A6000089590E0019694B983B9089590E094B9FF
:100A700083B984E890E097BF86BF86B797B787FFB2
:100A8000FCCF089584EC90E097BF86BF86B797B7F8
:100A900087FFFCCF83B194B1089584E890E097BFBD
:100AA00086BF86B797B787FFFCCF83B194B108950F
:100AB0008CE090E091B980B912B811B882E090E072
:100AC00093B982B984E090E097BF86BF089584EA25
:100AD00090E097BF86BF86B797B787FFFCCF0E948D
:100AE0002905883011F081E0089580E0089584EAB6
:100AF00090E097BF86BF86B797B787FFFCCF0E946D
:100B00002905803111F082E0089580E00895611197
:100B100003C00E942D0504C0613011F40E9431050C
:100B200084E890E097BF86BF86B797B787FFFCCF72
:100B30000E942905883171F00E942905803261F0F8
:100B40000E942905803451F00E942905883441F41F
:100B500086E0089583E0089584E0089585E008958F
:100B600087E00895CF93DF93EC0161110CC00E94E0
:100B700036050E9429058832F1F00E94290580334C
:100B8000E1F489E01FC06130A9F4411104C00E9462
:100B90004205888305C0413019F40E944D058883C1
:100BA0000E942905803559F00E942905883549F4AD
:100BB0008CE008C007C088E005C08AE003C08BE075
:100BC00001C08DE0DF91CF91089584E990E097BF57
:100BD00086BF86B797B784FDFCCF089541E064E0F7
:100BE00082E40E94130441E065E082E40E94130461
:100BF00041E067E082E40E94130440E066E082E4A2
:100C00000E94130441E064E082E40E949E048DB1DE
:100C100080648DB98DB180618DB9089540E064E044
:100C200082E40E949E0408958FB9779BFECF8FB116
:100C3000089581110EC083B7877F83BF83B78F7BF1
:100C400083BF89B7816089BF8FB780688FBF80E01D
:100C50000895813081F0823081F485B5877F85BD2C
:100C600085B58F7B85BD89B7806489BF8FB7806864
:100C70008FBF80E0089580E0089581E0089581119C
:100C80000BC083B7846083BF83B78D7F83BF83B777
:100C90008E7F83BF80E00895813069F0823069F4EF
:100CA00085B5846085BD85B5826085BD85B58E7F3F
:100CB00085BD80E0089580E0089581E00895811168
:100CC00007C089B78E7F89BF89B78D7F89BF0AC06A
:100CD000813041F0823031F489B78F7B89BF89B789
:100CE0008F7789BF81E00895811104C089B7816041
:100CF00089BF07C0813029F0823019F489B7806438
:100D000089BF81E00895CF92DF92EF92FF920F9317
:100D10001F93882309F445C0813009F442C0823012
:100D200009F03FC06A017B010E945F06A8EEB3E0B4
:100D3000A70196010E9408086B017C01689413F8D2
:100D4000F694E794D794C7941694D1F78B019C013D
:100D50000F2EFCE03695279517950795FA95D1F754
:100D6000F02DCC2051F00F5F1F4F2F4F3F4FC194FC
:100D7000C4BC40E050E0BA010CC014BCFACF08B6C5
:100D800006FEFDCF88B7806488BF4F5F5F4F6F4F0F
:100D90007F4F401751076207730788F382E00E9474
:100DA000740681E01F910F91FF90EF90DF90CF903C
:100DB00008951F920F920FB60F9211242F933F9315
:100DC0004F935F936F937F938F939F93AF93BF9353
:100DD000EF93FF9380914D01811135C080914901BE
:100DE00090914A01A0914B01B0914C010196A11D37
:100DF000B11D8093490190934A01A0934B01B09398
:100E00004C0140915B0150915C0160915D017091DA
:100E10005E0184179507A607B70709F04AC0E0915D
:100E20005001F0915101309709F009951092490154
:100E300010924A0110924B0110924C0180915A017C
:100E4000819582BF36C0809148018823C9F040E077
:100E500064E084E40E949E0440E065E084E40E9433
:100E60009E0480916101819582BF80916101909182
:100E700062018F3F910509F0E0F41092480119C01A
:100E800041E064E084E40E949E0441E065E084E483
:100E90000E949E0480915F01819582BF80915F01D5
:100EA000909160018F3F910509F018F481E08093E3
:100EB0004801FF91EF91BF91AF919F918F917F91E9
:100EC0006F915F914F913F912F910F900FBE0F90B7
:100ED0001F9018951F920F920FB60F9211242F9307
:100EE0003F934F935F936F937F938F939F93AF93B2
:100EF000BF93EF93FF938091440190914501A0919E
:100F00004601B09147010196A11DB11D8093440196
:100F100090934501A0934601B0934701409156013B
:100F200050915701609158017091590184179507AC
:100F3000A607B70799F4E0914E01F0914F01309761
:100F400009F0099510924401109245011092460152
:100F50001092470180915201819582BFFF91EF91DC
:100F6000BF91AF919F918F917F916F915F914F91C1
:100F70003F912F910F900FBE0F901F90189540E05A
:100F800060E084E40E949E0441E061E084E40E9409
:100F90009E048AB18B7F8AB987E689B986E880BDCD
:100FA0008AB180618AB98AB188608AB908958CB99A
:100FB0005E9BFECF08955F9BFECF8CB108950F938B
:100FC0001F93CF938C01C0E00AC00E94D7074AE06C
:100FD00050E060E070E082E00E948306CF5FF8019D
:100FE000EC0FF11D80818111F0CFCF911F910F91F6
:100FF0000895A29FB001B39FC001A39F700D811DF2
:101000001124911DB29F700D811D1124911D089511
:101010000E94F907A59F900DB49F900DA49F800D8D
:0A102000911D11240895F894FFCFEC
:10102A00506C6561736520456E7465722043617208
:10103A00642050414E0D0050414E206973206E6F5E
:10104A007420636F72726563740D0050414E20699B
:10105A00732076616C69640D00506C65617365205C
:10106A00456E746572204E65772050494E0D596F52
:10107A00752063616E206F6E6C7920656E7465727F
:10108A00206E756D6265727320616E64206F6E6C7E
:10109A00792034206469676974730D00506C656146
:1010AA00736520436F6E6669726D204E65772050B6
:1010BA00494E0D0057726F6E672050494E0D005011
:1010CA006C65617365207072657373203120666F79
:1010DA007220656E746572696E6720757365722019
:1010EA006D6F646520616E64203220666F722070B5
:1010FA00726F6772616D6D696E67206D6F64650DE1
:02110A000000E3
:00000001FF
