S00C0000434152442E73726563FE
S11300000C946B000C947D000C947D000C947D008A
S11300100C947D000C94CB010C947D000C947D0019
S11300200C947D000C947D000C947D000C943A019A
S11300300C947D000C947D000C947D000C947D0048
S11300400C947D000C947D000C947D000C947D0038
S11300500C947D0007634236B79BD8A71A396856BB
S113006018AEBAAB558C1D3CB7CC5763BD6DEDFDD6
S1130070753EF6177231BF000000803F0800000093
S1130080BE922449123EABAAAA2ABECDCCCC4C3E89
S113009000000080BEABAAAAAA3E00000000BF0078
S11300A00000803F0000000000084178D3BB438774
S11300B0D1133D190E3CC3BD4282AD2B3E68EC8288
S11300C076BED98FE1A93E4C80EFFFBE01C4FF7F0D
S11300D03F000000000011241FBECFE5D8E0DEBFC2
S11300E0CDBF20E0A0E6B0E001C01D92AF37B2075B
S11300F0E1F70E947F000C94C3050C9400000E9459
S113010020020E940F01FFCF683008F080C0442312
S113011021F0413009F440C07CC08234B1F018F4BD
S1130120813431F078C08334E9F0843441F173C010
S11301302BB381E090E002C0880F991F6A95E2F723
S1130140809582238BBB80E0089528B381E090E002
S113015002C0880F991F6A95E2F78095822388BBB5
S113016080E0089525B381E090E002C0880F991FD4
S11301706A95E2F78095822385BB80E0089522B3D7
S113018081E090E002C0880F991F6A95E2F780959C
S1130190822382BB80E008958234A9F018F481346C
S11301A031F03BC08334D9F0843429F136C02BB309
S11301B081E090E002C0880F991F6A95E2F7822BD4
S11301C08BBB80E0089528B381E090E002C0880FE3
S11301D0991F6A95E2F7822B88BB80E0089525B3C6
S11301E081E090E002C0880F991F6A95E2F7822BA4
S11301F085BB80E0089522B381E090E002C0880FBF
S1130200991F6A95E2F7822B82BB80E0089582E011
S1130210089583E0089581E0089581E0089512B877
S113022011B861B172B16370772780E090E00E94E9
S113023043039B01AC0160E070E080E890E40E941D
S1130240D1039B01AC010E9436029B01AC0160E02A
S113025070E080EC91E40E94A2020E94140371B940
S113026060B982E090E093B982B984E090E097BFEE
S113027086BF08951F920F920FB60F9211242F93E9
S11302803F934F935F936F937F938F939F93AF931A
S1130290BF93EF93FF9380916900811135C08091E2
S11302A0650090916600A0916700B0916800019686
S11302B0A11DB11D8093650090936600A093670013
S11302C0B093680040917700509178006091790074
S11302D070917A0084179507A607B70709F04AC0FA
S11302E0E0916C00F0916D00309709F0099510923F
S11302F06500109266001092670010926800809169
S11303007600819582BF36C0809164008823C9F04D
S113031040E064E084E40E94840040E065E084E41A
S11303200E94840080917D00819582BF80917D0030
S113033090917E008F3F910509F0E0F410926400E3
S113034019C041E064E084E40E94840041E065E077
S113035084E40E94840080917B00819582BF809117
S11303607B0090917C008F3F910509F018F481E0A7
S113037080936400FF91EF91BF91AF919F918F9112
S11303807F916F915F914F913F912F910F900FBE8D
S11303900F901F9018951F920F920FB60F92112471
S11303A02F933F934F935F936F937F938F939F9379
S11303B0AF93BF93EF93FF9380916000909161009E
S11303C0A0916200B09163000196A11DB11D8093BC
S11303D0600090936100A0936200B0936300409129
S11303E072005091730060917400709175008417CD
S11303F09507A607B70799F4E0916A00F0916B009E
S1130400309709F0099510926000109261001092E3
S113041062001092630080916E00819582BFFF910B
S1130420EF91BF91AF919F918F917F916F915F9168
S11304304F913F912F910F900FBE0F901F901895E1
S113044083E389B910BC80B5826080BD80B58460C7
S113045080BD80B5806880BD88E18AB98AB1806139
S11304608AB98AB188608AB908955058BB27AA27E7
S11304700E944D020C9497030E94890338F00E9455
S1130480900320F039F49F3F19F426F40C9486036A
S11304900EF4E095E7FB0C948003E92F0E94A80377
S11304A058F3BA17620773078407950720F079F4A5
S11304B0A6F50C94CA030EF4E0950B2EBA2FA02DCA
S11304C00B01B90190010C01CA01A0011124FF27FD
S11304D0591B99F0593F50F4503E68F11A16F040F8
S11304E0A22F232F342F4427585FF3CF46953795F7
S11304F02795A795F0405395C9F77EF41F16BA0BBC
S1130500620B730B840BBAF09150A1F0FF0FBB1F69
S1130510661F771F881FC2F70EC0BA0F621F731FB2
S1130520841F48F4879577956795B795F7959E3F0F
S113053008F0B0CF9395880F08F09927EE0F9795A0
S1130540879508950E94B6020C9497030E94900325
S113055058F00E94890340F029F45F3F29F00C947D
S1130560800351110C94CB030C9486030E94A803BE
S113057068F39923B1F3552391F3951B550BBB27CE
S1130580AA2762177307840738F09F5F5F4F220F13
S1130590331F441FAA1FA9F335D00E2E3AF0E0E80A
S11305A032D091505040E695001CCAF72BD0FE2F54
S11305B029D0660F771F881FBB1F261737074807E8
S11305C0AB07B0E809F0BB0B802DBF01FF279358A0
S11305D05F4F3AF09E3F510578F00C9480030C94E1
S11305E0CB035F3FE4F3983ED4F386957795679504
S11305F0B795F7959F5FC9F7880F911D96958795D5
S113060097F90895E1E0660F771F881FBB1F6217F3
S113061073078407BA0720F0621B730B840BBA0BB1
S1130620EE1F88F7E09508950E94B00388F09F5765
S113063098F0B92F9927B751B0F0E1F0660F771F02
S1130640881F991F1AF0BA95C9F714C0B13091F0F8
S11306500E94CA03B1E008950C94CA03672F782F4F
S11306608827B85F39F0B93FCCF3869577956795BD
S1130670B395D9F73EF490958095709561957F4F29
S11306808F4F9F4F0895E89409C097FB3EF49095CF
S11306908095709561957F4F8F4F9F4F9923A9F057
S11306A0F92F96E9BB279395F695879577956795E6
S11306B0B795F111F8CFFAF4BB0F11F460FF1BC02A
S11306C06F5F7F4F8F4F9F4F16C0882311F096E9BD
S11306D011C0772321F09EE8872F762F05C066236B
S11306E071F096E8862F70E060E02AF09A95660F24
S11306F0771F881FDAF7880F9695879597F90895DD
S113070097F99F6780E870E060E008959FEF80ECC0
S1130710089500240A941616170618060906089563
S113072000240A9412161306140605060895092EC9
S11307300394000C11F4882352F0BB0F40F4BF2B38
S113074011F460FF04C06F5F7F4F8F4F9F4F089578
S113075057FD9058440F551F59F05F3F71F047956E
S1130760880F97FB991F61F09F3F79F08795089553
S1130770121613061406551FF2CF4695F1DF08C072
S1130780161617061806991FF1CF8695710561058F
S113079008940895E894BB2766277727CB0197F937
S11307A00895FA01EE0FFF1F309621053105A1F1DE
S11307B06115710561F48038BFE39B0749F16894C2
S11307C09038810561F08038BFEF9B0741F0992391
S11307D04AF5FF3FE1053105210519F1E894089434
S11307E0E795D901AA2329F4AB2FBE2FF85FD0F3E4
S11307F010C0FF5F70F4A695E0F7F73950F019F0D8
S1130800FF3A38F49F779F930DD00F9007FC9058D0
S1130810089546F00C94860360E070E080E89FE35E
S113082008954FE79F775F934F933F932F930E94D1
S1130830CC042F913F914F915F910E9448050C94F5
S1130840290429F416F00C9480030C94CA030C9424
S113085086030E94B003A8F39638A0F707F80F9216
S1130860E8942BE33AEA48EB5FE70E945E050F92B7
S11308700F920F924DB75EB70F920E941405E4E5F4
S1130880F0E00E945B044F915F91EF91FF91E59539
S1130890EE1FFF1F49F0FE57E0684427EE0F441F88
S11308A0FA95E1F74195550B0E948E040F9007FECF
S11308B00C9482040895DF93CF931F930F93FF92B8
S11308C0EF92DF927B018C01689406C0DA2EEF016F
S11308D00E945B05FE01E894A5912591359145910F
S11308E05591A6F3EF010E944D02FE019701A80164
S11308F0DA9469F7DF90EF90FF900F911F91CF91F9
S1130900DF9108959B01AC0160E070E080E89FE313
S11309100C94A2020C9480030C94B5050E94B003BD
S1130920D8F39923C9F3940F511DA3F39150504068
S113093094F059F0882332F0660F771F881F915086
S11309405040C1F79E3F51052CF7880F911D969595
S1130950879597F908955F3FACF0983E9CF0BB27CC
S1130960869577956795B79508F4B1609395C1F727
S1130970BB0F58F711F460FFE8CF6F5F7F4F8F4FC5
S11309809F4FE3CF0C94CB0316F00C94B5050C9455
S1130990860368940C9480030E94B003A8F39923FF
S11309A0C1F3AEF3DF93CF931F930F93FF92C92F3D
S11309B0DD2788232AF02197660F771F881FDAF72F
S11309C020E030E040E85FEB9FE3883920F0803E90
S11309D038F021968F770E943602ECE7F0E004C0ED
S11309E00E943602E9EAF0E00E945B048B01BE013A
S11309F0EC01FB2E6F5771097595771F880B990BC6
S1130A000E94450328E132E741E35FE30E945B056E
S1130A10AF2D9801AE01FF900F911F91CF91DF91FF
S1130A200E944D020C949703FA01DC01AA0FBB1F2C
S1130A309B01AC01BF5728F4222733274427507861
S1130A4020C0B75190F4AB2F0024469537952795D5
S1130A50011CA395D2F3002071F0220F331F441F11
S1130A60B395DAF30ED00C94350261307105A0E829
S1130A708A07B94630F49B01AC016627772788279B
S1130A809078309621F020833183428353830895F4
S1130A900E945B050C9497030E94890338F00E941E
S1130AA0900320F0952311F00C9480030C9486039A
S1130AB011240C94CB030E94A80370F3959FC1F3F7
S1130AC0950F50E0551F629FF001729FBB27F00DF8
S1130AD0B11D639FAA27F00DB11DAA1F649F66274D
S1130AE0B00DA11D661F829F2227B00DA11D621F9C
S1130AF0739FB00DA11D621F839FA00D611D221F56
S1130B00749F3327A00D611D231F849F600D211D39
S1130B10822F762F6A2F11249F5750409AF0F1F0BC
S1130B2088234AF0EE0FFF1FBB1F661F771F881F25
S1130B3091505040A9F79E3F510580F00C948003DA
S1130B400C94CB035F3FE4F3983ED4F386957795FA
S1130B506795B795F795E7959F5FC1F7FE2B880FCB
S1130B60911D9695879597F908959F3F31F091507F
S1130B7020F4879577956795B795880F911D96957D
S10D0B80879597F90895F894FFCFC4
S9030000FC
