:100000000C942A000C9447000C9447000C94470071
:100010000C9447000C9459070C9447000C9447002B
:100020000C9447000C9447000C9447000C94C806AD
:100030000C9447000C9447000C9447000C94470024
:100040000C9447000C9447000C9447000C94470014
:100050000C94470011241FBECFE5D8E0DEBFCDBF12
:1000600011E0A0E6B0E0E8E0F0E102C005900D92FA
:10007000A234B107D9F721E0A2E4B1E001C01D929A
:10008000A336B207E1F70E94F4030C9402080C9423
:10009000000082E00E94080682E00E944E0682E094
:1000A0000E942E060E94B3030E9495030E94DC0367
:1000B0000E946A0244E650E060E070E082E00E9444
:1000C00072060E94AE0744E650E060E070E082E015
:1000D0000E9472060E94D40544E650E060E070E0A1
:1000E00082E00E9472060E94FD0507C04AE050E0CF
:1000F00060E070E082E00E9472068AEA0E940306D5
:100100008535A1F707C04AE050E060E070E082E08A
:100110000E9472068AEA0E9403068535A1F744E62A
:1001200050E060E070E082E00E94720608951F9344
:10013000CF93DF931F92CDB7DEB7198210E112C0C3
:10014000BE016F5F7F4F812F90E00E949C024AE0CA
:1001500050E060E070E082E00E94720689818F3F8B
:1001600019F41F5F103460F389818F3F11F081E033
:1001700001C080E00F90DF91CF911F910895CF9340
:10018000DF93CDB7DEB7A1970FB6F894DEBF0FBEF1
:10019000CDBFFE01319685E1DF011D928A95E9F719
:1001A00086E07596DF01982F1D929A95E9F73696AD
:1001B000DF011D928A95E9F70E949700813019F4BA
:1001C0008093430103C082E0809343018091430107
:1001D000813009F4D9C08230C9F780914201813061
:1001E000E1F120F0823009F443C0F0CF80E690E0E6
:1001F0000E94CE0700E010E014C00E94CA07182F2A
:100200000CC0812F0E94C607E1E0F0E0EC0FFD1F5B
:10021000E00FF11D10830F5F10E080ED810F8A3039
:1002200080F31D3051F78DE00E94C6074AE050E090
:1002300060E070E082E00E9472060051043028F015
:1002400087E790E00E94CE07C1CF8BE890E00E9444
:10025000CE0781E080934201B9CFBE016F5F7F4F2F
:1002600080E190E00E94D60282E080934201AECF0E
:1002700089E990E00E94CE0700E01BC00E94CA07F7
:10028000182F13C08AE20E94C6074AE050E060E0DF
:1002900070E082E00E947206E6E1F0E0EC0FFD1FE4
:1002A000E00FF11D10830F5F10E080ED810F8A30A9
:1002B00048F3043018F38DE00E94C6074AE050E08E
:1002C00060E070E082E00E9472068CED90E00E9497
:1002D000CE0700E01BC00E94CA07182F13C08AE295
:1002E0000E94C6074AE050E060E070E082E00E94B1
:1002F0007206ECE1F0E0EC0FFD1FE00FF11D108342
:100300000F5F10E080ED810F8A3048F3043018F35E
:100310008DE00E94C6074AE050E060E070E082E0B5
:100320000E94720640E020E014C0822F90E0E6E1D7
:10033000F0E0EC0FFD1FE80FF91F3081ECE1F0E079
:10034000EC0FFD1FE80FF91F8081381301C04F5FCC
:100350002F5F243050F3443061F084EF90E00E942E
:10036000CE074AE050E060E070E082E00E94720652
:100370002DCFBE016A5E7F4F80E390E00E94D602DF
:1003800081E08093430122CF8FEF90E00E94CE075F
:100390000E94CA07182F8FEC810F8230C8F7812F77
:1003A0000E94C6074AE050E060E070E082E00E94F0
:1003B00072068DE00E94C6074AE050E060E070E0FF
:1003C00082E00E947206113309F07BC00E94E203B2
:1003D000BE016F5F7F4F80E190E00E94FB024AE028
:1003E00050E060E070E082E00E947206BE016A5E4A
:1003F0007F4F80E390E00E94FB024AE050E060E023
:1004000070E082E00E94720610E00CC00E940306B9
:100410008B3B09F41F5F4AE050E060E070E082E04F
:100420000E947206E1E0F0E0EC0FFD1FE10FF11D0C
:1004300080818111EBCF07C04AE050E060E070E0BE
:1004400082E00E94720680E00E9403068B3BA1F3CB
:1004500010E013C0E6E1F0E0EC0FFD1FE10FF11D2D
:1004600080810E9403068C3C09F41F5F4AE050E043
:1004700060E070E082E00E947206143058F307C01A
:100480004AE050E060E070E082E00E94720680E0A6
:100490000E9403068C3CA1F348E853E160E070E061
:1004A00082E00E94720607C044E650E060E070E01F
:1004B00082E00E9472068DED0E9403068D3DA1F739
:1004C00085CE123309F082CE82E0809343011092F0
:1004D00042017CCE0E943E0508951F93CF93DF9387
:1004E000D82FC92F162F0E944D05811120C060E022
:1004F00080EA0E946D058330D1F440E060E08C2FEB
:1005000090E00E949805883091F440E060E08D2FE3
:1005100090E00E949805883051F440E060E0812F1F
:1005200090E00E949805883011F40E94CB0580E08D
:10053000DF91CF911F9108950F931F93CF93DF9376
:10054000D82FC92F8B010E944D05811129C060E071
:1005500080EA0E946D05833019F540E060E08C2F41
:1005600090E00E9498058830D9F440E060E08D2F3B
:1005700090E00E949805883099F40E945D058111F1
:100580000FC061E080EA0E946D05853049F441E0CA
:1005900061E0C8010E9498058C3011F40E94CB05DF
:1005A00080E0DF91CF911F910F910895EF92FF921C
:1005B0000F931F93CF937B01C0E00EC08C010F5FA0
:1005C0001F4F0E946D0244E150E060E070E082E065
:1005D0000E947206CF5FC801F701EC0FF11D608128
:1005E0006111ECCF0E946D0280E0CF911F910F91BD
:1005F000FF90EF900895CF92DF92EF92FF920F93CA
:100600001F93CF936B01C0E086010C0F111D7C017D
:100610002FEFE21AF20AB8010E949C024EE150E06C
:1006200060E070E082E00E947206CF5FF8012081F6
:10063000C7012111E9CF80E0CF911F910F91FF9069
:10064000EF90DF90CF900895CF93C82F40E061E006
:1006500081E40E9484044C2F441F4427441F67E018
:1006600081E40E948404C6FB442740F966E081E4EB
:100670000E948404C5FB442740F965E081E40E94A0
:100680008404C4FB442740F964E081E40E948404AC
:1006900041E063E081E40E94840441E050E060E0D6
:1006A00070E082E00E94720640E063E081E40E9414
:1006B000840441E050E060E070E082E00E94720655
:1006C000C3FB442740F967E081E40E948404C2FB35
:1006D000442740F966E081E40E948404C1FB44277A
:1006E00040F965E081E40E9484044C2F417064E08D
:1006F00081E40E94840441E063E081E40E94840478
:1007000041E050E060E070E082E00E94720640E06C
:1007100063E081E40E94840441E050E060E070E026
:1007200082E00E947206CF91089542E350E060E0BB
:1007300070E082E00E94720682E00E94240388E258
:100740000E9424038CE00E94240381E00E94240381
:1007500041E050E060E070E082E00E94720686E0D6
:100760000E942403089541E060E081E40E94F903BF
:1007700041E061E081E40E94F90341E062E081E44C
:100780000E94F90341E063E081E40E94F90341E043
:1007900064E081E40E94F90341E065E081E40E94A5
:1007A000F90341E066E081E40E94F90341E067E07B
:1007B00081E40E94F903089541E060E082E40E9430
:1007C000F903089541E060E082E40E94840448EC6B
:1007D00050E060E070E082E00E94720640E060E07D
:1007E00082E40E94840408950E9449000E94BF0090
:1007F000FFCF683008F080C0442321F0413009F475
:1008000040C07CC08234B1F018F4813431F078C03B
:100810008334E9F0843441F173C02AB381E090E07D
:1008200002C0880F991F6A95E2F7809582238ABBE0
:1008300080E0089527B381E090E002C0880F991FFF
:100840006A95E2F78095822387BB80E0089524B300
:1008500081E090E002C0880F991F6A95E2F78095C9
:10086000822384BB80E0089521B381E090E002C040
:10087000880F991F6A95E2F78095822381BB80E0FB
:1008800008958234A9F018F4813431F03BC08334E8
:10089000D9F0843429F136C02AB381E090E002C057
:1008A000880F991F6A95E2F7822B8ABB80E0089532
:1008B00027B381E090E002C0880F991F6A95E2F7A4
:1008C000822B87BB80E0089524B381E090E002C0D2
:1008D000880F991F6A95E2F7822B84BB80E0089508
:1008E00021B381E090E002C0880F991F6A95E2F77A
:1008F000822B81BB80E0089582E0089584E0089512
:1009000081E0089581E00895683008F080C04423B4
:1009100021F0413009F440C07CC08234B1F018F4B9
:10092000813431F078C08334E9F0843441F173C00C
:100930002BB381E090E002C0880F991F6A95E2F71F
:10094000809582238BBB80E0089528B381E090E0FE
:1009500002C0880F991F6A95E2F78095822388BBB1
:1009600080E0089525B381E090E002C0880F991FD0
:100970006A95E2F78095822385BB80E0089522B3D3
:1009800081E090E002C0880F991F6A95E2F7809598
:10099000822382BB80E008958234A9F018F4813468
:1009A00031F03BC08334D9F0843429F136C02BB305
:1009B00081E090E002C0880F991F6A95E2F7822BD0
:1009C0008BBB80E0089528B381E090E002C0880FDF
:1009D000991F6A95E2F7822B88BB80E0089525B3C2
:1009E00081E090E002C0880F991F6A95E2F7822BA0
:1009F00085BB80E0089522B381E090E002C0880FBB
:100A0000991F6A95E2F7822B82BB80E0089582E00D
:100A1000089583E0089581E0089581E0089581B10B
:100A200092B1887F089590E094B983B9089590E0D9
:100A3000019694B983B9089590E094B983B984E894
:100A400090E097BF86BF86B797B787FFFCCF089522
:100A500084EC90E097BF86BF86B797B787FFFCCF3F
:100A600083B194B1089584E890E097BF86BF86B7BC
:100A700097B787FFFCCF83B194B108958CE090E0E5
:100A800091B980B912B811B882E090E093B982B9F7
:100A900084E090E097BF86BF089584EA90E097BF16
:100AA00086BF86B797B787FFFCCF0E940F058830B7
:100AB00011F081E0089580E0089584EA90E097BF06
:100AC00086BF86B797B787FFFCCF0E940F0580319E
:100AD00011F082E0089580E00895611103C00E9442
:100AE000130504C0613011F40E94170584E890E0FA
:100AF00097BF86BF86B797B787FFFCCF0E940F05C9
:100B0000883171F00E940F05803261F00E940F055C
:100B1000803451F00E940F05883441F486E0089536
:100B200083E0089584E0089585E0089587E00895BE
:100B3000CF93DF93EC0161110CC00E941C050E9451
:100B40000F058832F1F00E940F058033E1F489E04F
:100B50001FC06130A9F4411104C00E942805888398
:100B600005C0413019F40E94330588830E940F05A7
:100B7000803559F00E940F05883549F48CE008C093
:100B800007C088E005C08AE003C08BE001C08DE0AB
:100B9000DF91CF91089584E990E097BF86BF86B733
:100BA00097B784FDFCCF089541E064E082E40E94A1
:100BB000F90341E065E082E40E94F90341E067E067
:100BC00082E40E94F90340E066E082E40E94F903B7
:100BD00041E064E082E40E9484048DB180648DB9B8
:100BE0008DB180618DB98EB18E7F8EB98DB18160EE
:100BF0008DB98DB182608DB9089540E064E082E4E2
:100C00000E94840408958FB9779BFECF8FB1089519
:100C100081110EC083B7877F83BF83B78F7B83BF6C
:100C200089B7816089BF8FB780688FBF80E00895E2
:100C3000813081F0823081F485B5877F85BD85B5AF
:100C40008F7B85BD89B7806489BF8FB780688FBF70
:100C500080E0089580E0089581E0089581110BC03F
:100C600083B7846083BF83B78D7F83BF83B78E7F55
:100C700083BF80E00895813069F0823069F485B5E2
:100C8000846085BD85B5826085BD85B58E7F85BD57
:100C900080E0089580E0089581E00895811107C003
:100CA00089B78E7F89BF89B78D7F89BF0AC08130A0
:100CB00041F0823031F489B78F7B89BF89B78F7754
:100CC00089BF81E00895811104C089B7816089BF1F
:100CD00007C0813029F0823019F489B7806489BF58
:100CE00081E00895CF92DF92EF92FF920F931F93CE
:100CF000882309F445C0813009F442C0823009F0EC
:100D00003FC06A017B010E944E06A8EEB3E0A70136
:100D100096010E94F7076B017C01689413F8F69422
:100D2000E794D794C7941694D1F78B019C010F2EAA
:100D3000FCE03695279517950795FA95D1F7F02D94
:100D4000CC2051F00F5F1F4F2F4F3F4FC194C4BCB9
:100D500040E050E0BA010CC014BCFACF08B606FE61
:100D6000FDCF88B7806488BF4F5F5F4F6F4F7F4F65
:100D7000401751076207730788F382E00E946306F9
:100D800081E01F910F91FF90EF90DF90CF90089539
:100D90001F920F920FB60F9211242F933F934F93F0
:100DA0005F936F937F938F939F93AF93BF93EF93D3
:100DB000FF9380914D01811135C08091490190913F
:100DC0004A01A0914B01B0914C010196A11DB11DAA
:100DD0008093490190934A01A0934B01B0934C0139
:100DE00040915B0150915C0160915D0170915E01E9
:100DF00084179507A607B70709F04AC0E09150018C
:100E0000F0915101309709F0099510924901109223
:100E10004A0110924B0110924C0180915A01819528
:100E200082BF36C0809148018823C9F040E064E069
:100E300084E40E94840440E065E084E40E94840429
:100E400080916101819582BF8091610190916201E1
:100E50008F3F910509F0E0F41092480119C041E07C
:100E600064E084E40E94840441E065E084E40E943C
:100E7000840480915F01819582BF80915F01909190
:100E800060018F3F910509F018F481E080934801DB
:100E9000FF91EF91BF91AF919F918F917F916F9152
:100EA0005F914F913F912F910F900FBE0F901F9028
:100EB00018951F920F920FB60F9211242F933F9304
:100EC0004F935F936F937F938F939F93AF93BF9352
:100ED000EF93FF938091440190914501A0914601C9
:100EE000B09147010196A11DB11D809344019093DB
:100EF0004501A0934601B09347014091560150919E
:100F00005701609158017091590184179507A60700
:100F1000B70799F4E0914E01F0914F01309709F035
:100F200009951092440110924501109246011092C9
:100F3000470180915201819582BFFF91EF91BF914E
:100F4000AF919F918F917F916F915F914F913F9161
:100F50002F910F900FBE0F901F90189540E060E00A
:100F600084E40E94840441E061E084E40E948404FB
:100F70008AB18B7F8AB987E689B986E880BD8AB154
:100F800080618AB98AB188608AB908958CB95E9BFC
:100F9000FECF08955F9BFECF8CB108950F931F93F2
:100FA000CF938C01C0E00AC00E94C6074AE050E01F
:100FB00060E070E082E00E947206CF5FF801EC0F03
:100FC000F11D80818111F0CFCF911F910F91089574
:100FD000A29FB001B39FC001A39F700D811D11247A
:100FE000911DB29F700D811D1124911D08950E94C5
:100FF000E807A59F900DB49F900DA49F800D911DB3
:0810000011240895F894FFCFBC
:10100800506C6561736520456E746572204361722A
:10101800642050414E0D0050414E206973206E6F80
:101028007420636F72726563740D0050414E2069BD
:10103800732076616C69640D00506C65617365207E
:10104800456E746572204E65772050494E0D596F74
:10105800752063616E206F6E6C7920656E746572A1
:10106800206E756D6265727320616E64206F6E6CA0
:10107800792034206469676974730D00506C656168
:10108800736520436F6E6669726D204E65772050D8
:10109800494E0D0057726F6E672050494E0D005033
:1010A8006C65617365207072657373203120666F9B
:1010B8007220656E746572696E672075736572203B
:1010C8006D6F646520616E64203220666F722070D7
:1010D800726F6772616D6D696E67206D6F64650D03
:0210E800000006
:00000001FF
