S00B000041544D2E7372656337
S11300000C942A000C94D5000C94FE000C94270147
S11300100C9447000C94E1010C9447000C944700A5
S11300200C9447000C9447000C9447000C94500126
S11300300C9447000C9447000C9447000C94470020
S11300400C9447000C9447000C9447000C94470010
S11300500C94470011241FBECFE5D8E0DEBFCDBF0E
S113006010E0A0E6B0E0E0E7F4E002C005900D92F5
S1130070A036B107D9F720E0A0E6B0E001C01D9298
S1130080A538B207E1F70E9449000C9436020C949B
S11300900000FFCF683008F080C0442321F04130D5
S11300A009F440C07CC08234B1F018F4813431F0DA
S11300B078C08334E9F0843441F173C02BB381E018
S11300C090E002C0880F991F6A95E2F78095822319
S11300D08BBB80E0089528B381E090E002C0880FD4
S11300E0991F6A95E2F78095822388BB80E0089582
S11300F025B381E090E002C0880F991F6A95E2F76A
S11301008095822385BB80E0089522B381E090E04E
S113011002C0880F991F6A95E2F78095822382BBFB
S113012080E008958234A9F018F4813431F03BC0A2
S11301308334D9F0843429F136C02BB381E090E0C4
S113014002C0880F991F6A95E2F7822B8BBB80E06F
S1130150089528B381E090E002C0880F991F6A9542
S1130160E2F7822B88BB80E0089525B381E090E01C
S113017002C0880F991F6A95E2F7822B85BB80E045
S1130180089522B381E090E002C0880F991F6A9518
S1130190E2F7822B82BB80E0089582E0089583E039
S11301A0089581E0089581E008951F920F920FB69B
S11301B00F9211242F933F934F935F936F937F93E9
S11301C08F939F93AF93BF93EF93FF93E09164005A
S11301D0F0916500309709F00995FF91EF91BF9177
S11301E0AF919F918F917F916F915F914F913F91CB
S11301F02F910F900FBE0F901F9018951F920F9282
S11302000FB60F9211242F933F934F935F936F93E5
S11302107F938F939F93AF93BF93EF93FF93E0915B
S11302206200F0916300309709F00995FF91EF9116
S1130230BF91AF919F918F917F916F915F914F91FA
S11302403F912F910F900FBE0F901F9018951F9202
S11302500F920FB60F9211242F933F934F935F93F6
S11302606F937F938F939F93AF93BF93EF93FF937A
S1130270E0916000F0916100309709F00995FF91D9
S1130280EF91BF91AF919F918F917F916F915F910A
S11302904F913F912F910F900FBE0F901F90189583
S11302A01F920F920FB60F9211242F933F934F93E7
S11302B05F936F937F938F939F93AF93BF93EF93CA
S11302C0FF9380916F00811135C080916B009091F4
S11302D06C00A0916D00B0916E000196A11DB11D3E
S11302E080936B0090936C00A0936D00B0936E00AC
S11302F040917D0050917E0060917F00709180005C
S113030084179507A607B70709F04AC0E091720061
S1130310F0917300309709F0099510926B001092D8
S11303206C0010926D0010926E0080917C0081959B
S113033082BF36C080916A008823C9F040E064E03F
S113034084E40E944A0040E065E084E40E944A009C
S113035080918300819582BF809183009091840075
S11303608F3F910509F0E0F410926A0019C041E052
S113037064E084E40E944A0041E065E084E40E9471
S11303804A0080918100819582BF80918100909183
S113039082008F3F910509F018F481E080936A0090
S11303A0FF91EF91BF91AF919F918F917F916F9149
S11303B05F914F913F912F910F900FBE0F901F901F
S11303C018951F920F920FB60F9211242F933F93FB
S11303D04F935F936F937F938F939F93AF93BF9349
S11303E0EF93FF938091660090916700A09168005D
S11303F0B09169000196A11DB11D80936600909390
S11304006700A0936800B093690040917800509110
S1130410790060917A0070917B0084179507A60794
S1130420B70799F4E0917000F0917100309709F0EA
S1130430099510926600109267001092680010925D
S1130440690080917400819582BFFF91EF91BF9103
S1130450AF919F918F917F916F915F914F913F9158
S11304602F910F900FBE0F901F901895F894FFCF07
S9030000FC
