:100000000C9434000C94060C0C942F0C0C94580C8B
:100010000C9451000C94D90E0C9451000C94510086
:100020000C9451000C9451000C9451000C94480E07
:100030000C9451000C9451000C9451000C945100FC
:100040000C9451000C9451000C9451000C945100EC
:100050000C945100F100E5000801A6013802EC04FF
:100060005F0298035D04CF0411241FBECFE5D8E0E2
:10007000DEBFCDBF12E0A0E6B0E0E2E7F3E202C0EF
:1000800005900D92A233B107D9F722E0A2E3B2E0C6
:1000900001C01D92AC35B207E1F70E94D3090C9460
:1000A000B7110C940000809157028F5F8093570224
:1000B000089583E0809332020895FFCF82E00E948A
:1000C0009E0C82E00E94C80D82E00E94620D80E0DA
:1000D0000E94BA0B0E94810C0E94AF090E94620923
:1000E00062E082E40E944E0680E00E9467060E9461
:1000F000890669E570E080E00E94EE0B63E570E040
:1001000082E00E94B00D07C04AE050E060E070E07D
:1001100082E00E94EC0D85E50E94990C8A3AA1F7D5
:1001200007C04AE050E060E070E082E00E94EC0D21
:1001300085E50E94990C8A3AA1F707C04AE050E091
:1001400060E070E082E00E94EC0D85E50E94990C71
:100150008A3AA1F70895CF93DF93CDB7DEB7AB9777
:100160000FB6F894DEBF0FBECDBF19821A821B8274
:100170001C8289E0E9E2F2E0DE01159601900D9221
:100180008A95E1F7FE013E9685E0DF011D928A9592
:10019000E9F7359689E1DF011D928A95E9F7C12CCF
:1001A000D12C76010F2E412C512CF0E86F2EFFE35D
:1001B0007F2EF02DB12CA12C08C00F2E412C512CDC
:1001C000F0E86F2EFFE37F2EF02DE09132028E2FAC
:1001D00090E08A309105C8F7FC01E65DFF4F0C9472
:1001E00087110E94A40982E591E00E94830948EEEC
:1001F00053E060E070E082E00E94EC0D0E94A409F0
:1002000081E691E00E94830981E080933202DDCF94
:100210000E94A4098FE691E00E94830960E081E0DA
:100220000E9496090E94C60610E044C00E94C606BD
:10023000082F882361F08EE791E00E948009EEE0AC
:10024000F0E0EC0FFD1FE10FF11D00831F5F46E59D
:1002500052E062E082E40E945B06809156028823AD
:1002600049F14CE350E060E070E082E00E94EC0D68
:1002700046E552E062E082E40E945B06809156020D
:10028000811107C017C046E552E062E082E40E9497
:100290005B06809156028111F6CF8EE791E00E94B5
:1002A0008009EEE0F0E0EC0FFD1FE10FF11D80E3AF
:1002B00080831F5F143008F4B9CF42C046E552E096
:1002C00062E082E40E945B06809156028823C1F1BD
:1002D0004CE350E060E070E082E00E94EC0D46E507
:1002E00052E062E082E40E945B068091560288231D
:1002F00039F144E650E060E070E082E00E94C40C16
:1003000082E00E94620D82E00E94DD0D06C046E59B
:1003100052E062E082E40E945B0680915602811105
:10032000F6CF809157028A3018F084E08093320231
:1003300082E00E94C80D82E00E94820D1092570256
:1003400080913202823009F4B9CF3FCF0E94A409D4
:1003500080E891E00E94830948EE53E060E070E09D
:1003600082E00E94EC0D07C04AE050E060E070E0DF
:1003700082E00E94EC0D8DED0E94990C8D3DA1F75D
:1003800010E017C08BEB0E94990C112351F0E12F64
:10039000F0E0319723E130E02C0F3D1FE20FF31F17
:1003A00080831F5F4AE050E060E070E082E00E94DE
:1003B000EC0D143138F3E3E1F0E0EC0FFD1FE10F39
:1003C000F11D108207C04AE050E060E070E082E07A
:1003D0000E94EC0D8DED0E94990C8D3DA1F710E06F
:1003E00017C08CEC0E94990C112351F0E12FF0E022
:1003F0003197A7E2B0E0AC0FBD1FEA0FFB1F80836F
:100400001F5F4AE050E060E070E082E00E94EC0D87
:10041000153038F31CA60E94A409CE0143960E9411
:10042000830960E081E00E949609CE0187960E94D0
:10043000830948E853E160E070E082E00E94EC0D3F
:1004400082E080933202C1CE822F90E0EEE0F0E0B5
:10045000EC0FFD1FE80FF91F3081E7E2F0E0EC0F31
:10046000FD1FE80FF91F8081381305C02F5F01C001
:1004700020E0243048F3243059F082E080933202A7
:10048000A3948A1508F0A1CE85E0809332029DCE18
:1004900086E08093320280E38D838E838F8388870A
:1004A00089879EE29A878B878C870F2E412C512C4F
:1004B000F0E86F2EFFE37F2EF02DB12C86CE0E9448
:1004C000A4098AE891E00E94830960E081E00E942B
:1004D0009609CE0105960E9483090E94C606882EC1
:1004E00023C160E081E00E9496090E94C606882E22
:1004F000882309F475C0BB2001F120E030E040E220
:1005000051E4C301B2010E94F8106B017C01682D17
:1005100070E060537109072E000C880B990B0E9444
:100520004310A70196010E942F0F2B013C010E944E
:1005300012106B017C01B39417C0682F70E06053F8
:100540007109072E000C880B990B0E9443109B0128
:10055000AC01C301B2010E94F8102B013C010E94C2
:1005600012106B017C01B394912C37C087E089197C
:100570008630C8F007E010E009191109C701B6017B
:100580002AE030E040E050E00E946511E5E0F0E054
:10059000EC0FFD1FE00FF11F605D6083C22ED32EB4
:1005A000E42EF52E19C006E010E009191109C70163
:1005B000B6012AE030E040E050E00E946511E5E03D
:1005C000F0E0EC0FFD1FE00FF11F80E3860F80834A
:1005D000C22ED32EE42EF52E93949B1438F28C86E3
:1005E00046E552E062E082E40E945B06809156029A
:1005F000882309F499C04CE350E060E070E082E0A9
:100600000E94EC0D46E552E062E082E40E945B0647
:1006100080915602882309F487C01092570244E65D
:1006200050E060E070E082E00E94C40C82E00E9432
:10063000620D82E00E94DD0D06C046E552E062E0F8
:1006400082E40E945B06809156028111F6CF809170
:1006500057028A3070F020E030E048EC52E4C301E9
:10066000B2010E94A00F2B013C0187E0809332026F
:1006700051C082E00E94C80DBB2079F020E030E03C
:1006800040E251E4C301B2010E94F8102B013C0189
:100690000E9412106B017C01B394912C37C087E04B
:1006A00089198630C8F007E010E009191109C7015F
:1006B000B6012AE030E040E050E00E946511E5E03C
:1006C000F0E0EC0FFD1FE00FF11F605D6083C22EB4
:1006D000D32EE42EF52E19C006E010E009191109F9
:1006E000C701B6012AE030E040E050E00E94651109
:1006F000E5E0F0E0EC0FFD1FE00FF11F80E3860F57
:100700008083C22ED32EE42EF52E93949B1438F2C0
:1007100080E38C8782E00E94C80D82E00E94820DF7
:100720001092570288248394882009F4DACE4DCDA4
:100730002AE037ED43E25CE3C301B2010E949B0F64
:10074000811103C0412C512C32019E012D5E3F4F7F
:10075000B301A201CE0101960E94A805833009F5DC
:100760000E94A40987E991E00E94830960E081E08A
:100770000E94960982EA91E00E94830948EE53E0C4
:1007800060E070E082E00E94EC0D85E08093320230
:100790000F2E412C512CF0E86F2EFFE37F2EF02D11
:1007A00014CD823009F50E94A4098DEA91E00E94DF
:1007B000830960E081E00E9496098AEB91E00E9443
:1007C000830948EE53E060E070E082E00E94EC0DA7
:1007D00085E0809332020F2E412C512CF0E86F2ED1
:1007E000FFE37F2EF02DF1CC843009F50E94A4099F
:1007F00081EC91E00E94830960E081E00E9496090B
:1008000082ED91E00E94830948EE53E060E070E0E1
:1008100082E00E94EC0D89E0809332020F2E412C81
:10082000512CF0E86F2EFFE37F2EF02DCECC8130DF
:1008300009F50E94A4098BED91E00E94830960E014
:1008400081E00E94960988EE91E00E94830948EEBB
:1008500053E060E070E082E00E94EC0D89E080935C
:1008600032020F2E412C512CF0E86F2EFFE37F2E29
:10087000F02DABCC8111A1CC0E94A4098DEE91E0AA
:100880000E94830960E081E00E94960987EF91E071
:100890000E94830948EE53E060E070E082E00E942D
:1008A000EC0D88E0809332020F2E412C512CF0E8A1
:1008B0006F2EFFE37F2EF02D88CC20E030E048EC57
:1008C00052E469817A818B819C810E94F81069834E
:1008D0007A838B839C830E9412106B017C010E949F
:1008E000A40983E092E00E94830960E081E00E9415
:1008F0009609912C41C087E089198630F8F007E00D
:1009000010E009191109C701B6012AE030E040E002
:1009100050E00E946511E5E0F0E0EC0FFD1FE00FF4
:10092000F11F80E3860F8083C22ED32EE42EF52E96
:10093000C114D104E104F104F1F422C006E010E096
:1009400009191109C701B6012AE030E040E050E082
:100950000E946511E5E0F0E0EC0FFD1FE00FF11FD4
:10096000605D6083C22ED32EE42EF52EC114D10417
:10097000E104F10429F09394B6E0B91508F0BBCF77
:10098000CE0105960E94830948EE53E060E070E0D6
:1009900082E00E94EC0D89E08093320216CC0E9426
:1009A000A40985E192E00E94830948EE53E060E0EB
:1009B00070E082E00E94EC0D07C04AE050E060E089
:1009C00070E082E00E94EC0D8DED0E94990C8D3D4F
:1009D000A1F710923202F9CB0E94A40983E292E0BF
:1009E0000E94830980E00E9478066DE570E080E057
:1009F0000E94EE0BEACBAF92BF92CF92DF92EF92C2
:100A0000FF920F931F93CF93DF93CDB7DEB763971A
:100A10000FB6F894DEBF0FBECDBF6B01FE0131965D
:100A200023E1DF011D922A95E9F7BC01CF010E9465
:100A3000B011B12CA12C45C0EB2CF12C8701000F7B
:100A4000111F0E0D1F1D000F111F000F111F000F92
:100A5000111F0B591F4FB801CE0101960E94A7111B
:100A6000A82E81112DC0B801C60105960E94B011B3
:100A70009701220F331FD901AE0DBF1DAA0FBB1F57
:100A8000AA0FBB1FAA0FBB1FA05ABF4F8D919D91EC
:100A90000D90BC91A02DF60180839183A283B38336
:100AA000F901EE0DFF1DEE0FFF1FEE0FFF1FEE0F02
:100AB000FF1FE05AFF4F8481D60114968C9305C026
:100AC000B394B9E0BB1508F0B7CFAA2011F081E0CC
:100AD00001C080E063960FB6F894DEBF0FBECDBFB5
:100AE000DF91CF911F910F91FF90EF90DF90CF900A
:100AF000BF90AF900895FC018481882321F081305C
:100B000021F080E0089580E0089583E008950F9338
:100B10001F938B019C01FA01608171818281938115
:100B2000A90198010E94F310882314F080E001C00D
:100B300082E01F910F91089520E030E44CE955E4E4
:100B40000E94F310181614F484E0089580E00895CC
:100B50004F925F926F927F92AF92BF92CF92DF924D
:100B6000FF920F931F93CF93DF93CDB7DEB7AB9771
:100B70000FB6F894DEBF0FBECDBF5C012A013B016A
:100B80008901B901CE0101960E94B011BE016C5ECF
:100B90007F4FC8010E94FB04182FCE0144960E948B
:100BA0007B05082FAE014C5E5F4FC301B2010E946E
:100BB0008705F82EC301B2010E949C05113009F48B
:100BC00052C0033009F451C092E0F91609F44FC045
:100BD000843009F44EC0F12C40C00F2D10E0B80154
:100BE000660F771F600F711F660F771F660F771FE5
:100BF000660F771F6B597F4FCE0101960E94A71198
:100C0000892B51F56801CC0CDD1CF601E00FF11FBA
:100C1000EE0FFF1FEE0FFF1FEE0FFF1FE05AFF4FFB
:100C2000A301920160817181828193810E942E0FC4
:100C3000F601E00FF11FEE0FFF1FEE0FFF1FEE0F8B
:100C4000FF1FE05AFF4F6083718382839383F50116
:100C50006083718382839383F394F9E0FF1508F036
:100C6000BCCF80E007C083E005C082E003C081E024
:100C700001C084E0AB960FB6F894DEBF0FBECDBFC7
:100C8000DF91CF911F910F91FF90DF90CF90BF9098
:100C9000AF907F906F905F904F900895853438F4B7
:100CA000683038F440E00E94D80980E0089581E07F
:100CB000089582E00895853430F4683030F40E945D
:100CC000EE0A80E0089581E0089582E008958111A0
:100CD0000DC0E82FF0E0EE0FFF1FE05BFE4F41E09C
:100CE000618180810E94D80980E0089581E00895A3
:100CF00081110DC0E82FF0E0EE0FFF1FE05BFE4F0B
:100D000041E0618180810E94630A80E0089581E072
:100D1000089541E062E083E40E94D80941E063E085
:100D200083E40E94D80941E064E083E40E94D8098A
:100D300041E062E083E40E94630A41E063E083E40F
:100D40000E94630A41E064E083E40E94630A40E099
:100D500065E083E40E94D80940E066E083E40E94F5
:100D6000D80940E067E083E40E94D80941E065E0EB
:100D700083E40E942F0B41E066E083E40E942F0B86
:100D800041E067E083E40E942F0B08951F93CF9307
:100D9000DF931F92CDB7DEB7198240E062E083E4B3
:100DA0000E94630AAE014F5F5F4F65E083E40E94DB
:100DB000EE0A8981811124C046E450E060E070E0D1
:100DC00082E00E94EC0DAE014F5F5F4F65E083E46F
:100DD0000E94EE0A8981882349F010E012C0AE011A
:100DE0004F5F5F4F65E083E40E94EE0A89818823AC
:100DF000B1F341E062E083E40E94630A11E301C0C1
:100E000010E0AE014F5F5F4F66E083E40E94EE0AA0
:100E10008981811122C046E450E060E070E082E008
:100E20000E94EC0DAE014F5F5F4F66E083E40E94CD
:100E3000EE0A8981882341F010C0AE014F5F5F4FF9
:100E400066E083E40E94EE0A89818823B1F341E0E1
:100E500062E083E40E94630A12E3AE014F5F5F4FDA
:100E600067E083E40E94EE0A8981811122C046E492
:100E700050E060E070E082E00E94EC0DAE014F5F58
:100E80005F4F67E083E40E94EE0A8981882341F086
:100E900010C0AE014F5F5F4F67E083E40E94EE0A2F
:100EA00089818823B1F341E062E083E40E94630A10
:100EB00013E341E062E083E40E94630A40E063E000
:100EC00083E40E94630AAE014F5F5F4F65E083E4F5
:100ED0000E94EE0A8981811122C046E450E060E060
:100EE00070E082E00E94EC0DAE014F5F5F4F65E065
:100EF00083E40E94EE0A8981882341F010C0AE018C
:100F00004F5F5F4F65E083E40E94EE0A898188238A
:100F1000B1F341E063E083E40E94630A14E3AE01AD
:100F20004F5F5F4F66E083E40E94EE0A8981811182
:100F300022C046E450E060E070E082E00E94EC0DE8
:100F4000AE014F5F5F4F66E083E40E94EE0A898145
:100F5000882341F010C0AE014F5F5F4F66E083E42D
:100F60000E94EE0A89818823B1F341E063E083E4C3
:100F70000E94630A15E3AE014F5F5F4F67E083E4B1
:100F80000E94EE0A8981811122C046E450E060E0AF
:100F900070E082E00E94EC0DAE014F5F5F4F67E0B2
:100FA00083E40E94EE0A8981882341F010C0AE01DB
:100FB0004F5F5F4F67E083E40E94EE0A89818823D8
:100FC000B1F341E063E083E40E94630A16E341E089
:100FD00063E083E40E94630A40E064E083E40E94EB
:100FE000630AAE014F5F5F4F65E083E40E94EE0A43
:100FF0008981811122C046E450E060E070E082E027
:101000000E94EC0DAE014F5F5F4F65E083E40E94EC
:10101000EE0A8981882341F010C0AE014F5F5F4F17
:1010200065E083E40E94EE0A89818823B1F341E000
:1010300064E083E40E94630A17E3AE014F5F5F4FF1
:1010400066E083E40E94EE0A8981811122C046E4B1
:1010500050E060E070E082E00E94EC0DAE014F5F76
:101060005F4F66E083E40E94EE0A8981882341F0A5
:1010700010C0AE014F5F5F4F66E083E40E94EE0A4E
:1010800089818823B1F341E064E083E40E94630A2C
:1010900018E3AE014F5F5F4F67E083E40E94EE0A02
:1010A0008981811122C046E450E060E070E082E076
:1010B0000E94EC0DAE014F5F5F4F67E083E40E943A
:1010C000EE0A8981882341F010C0AE014F5F5F4F67
:1010D00067E083E40E94EE0A89818823B1F341E04E
:1010E00064E083E40E94630A19E341E064E083E47E
:1010F0000E94630A812F0F90DF91CF911F91089575
:10110000CF93C82F40E061E081E40E94630A4C2F36
:10111000441F4427441F67E081E40E94630AC6FB22
:10112000442740F966E081E40E94630AC5FB442736
:1011300040F965E081E40E94630AC4FB442740F95A
:1011400064E081E40E94630A41E063E081E40E947C
:10115000630A41E050E060E070E082E00E94EC0D44
:1011600040E063E081E40E94630A41E050E060E017
:1011700070E082E00E94EC0DC3FB442740F967E079
:1011800081E40E94630AC2FB442740F966E081E4DF
:101190000E94630AC1FB442740F965E081E40E9494
:1011A000630A4C2F417064E081E40E94630A41E0CD
:1011B00063E081E40E94630A41E050E060E070E097
:1011C00082E00E94EC0D40E063E081E40E94630A4B
:1011D00041E050E060E070E082E00E94EC0DCF91D1
:1011E0000895CF93C82F41E061E081E40E94630A33
:1011F0004C2F441F4427441F67E081E40E94630A88
:10120000C6FB442740F966E081E40E94630AC5FBFF
:10121000442740F965E081E40E94630AC4FB442747
:1012200040F964E081E40E94630A41E063E081E404
:101230000E94630A41E050E060E070E082E00E94BA
:10124000EC0D40E063E081E40E94630A41E050E07D
:1012500060E070E082E00E94EC0DC3FB442740F99F
:1012600067E081E40E94630AC2FB442740F966E01C
:1012700081E40E94630AC1FB442740F965E081E4F0
:101280000E94630A4C2F417064E081E40E94630A6B
:1012900041E063E081E40E94630A41E050E060E0E5
:1012A00070E082E00E94EC0D40E063E081E40E9487
:1012B000630A41E050E060E070E082E00E94EC0DE3
:1012C000CF91089542E350E060E070E082E00E9438
:1012D000EC0D82E00E94800888E20E9480088CE089
:1012E0000E94800881E00E94800841E050E060E0B8
:1012F00070E082E00E94EC0D86E00E948008089574
:101300000E94F10808950F931F93CF938C01C0E0C2
:1013100003C00E948009CF5FF801EC0FF11D8081AE
:101320008111F7CFCF911F910F910895811105C0C1
:10133000862F80680E9480080895813021F480EC17
:10134000860F0E948008089581E00E94800841E095
:1013500050E060E070E082E00E94EC0D089541E012
:1013600061E081E40E94D80941E062E081E40E94EA
:10137000D80941E063E081E40E94D80941E064E0DB
:1013800081E40E94D80941E065E081E40E94D80927
:1013900041E066E081E40E94D80941E067E081E431
:1013A0000E94D80908950E945E000E94AB00FFCF02
:1013B000683008F080C0442321F0413009F440C077
:1013C0007CC08234B1F018F4813431F078C08334B9
:1013D000E9F0843441F173C02AB381E090E002C0A7
:1013E000880F991F6A95E2F7809582238ABB80E077
:1013F000089527B381E090E002C0880F991F6A9595
:10140000E2F78095822387BB80E0089524B381E0D2
:1014100090E002C0880F991F6A95E2F780958223B9
:1014200084BB80E0089521B381E090E002C0880F82
:10143000991F6A95E2F78095822381BB80E0089529
:101440008234A9F018F4813431F03BC08334D9F0F0
:10145000843429F136C02AB381E090E002C0880FBD
:10146000991F6A95E2F7822B8ABB80E0089527B323
:1014700081E090E002C0880F991F6A95E2F7822B05
:1014800087BB80E0089524B381E090E002C0880F1C
:10149000991F6A95E2F7822B84BB80E0089521B3FF
:1014A00081E090E002C0880F991F6A95E2F7822BD5
:1014B00081BB80E0089582E0089584E0089581E092
:1014C000089581E00895683008F080C0442321F039
:1014D000413009F440C07CC08234B1F018F481344A
:1014E00031F078C08334E9F0843441F173C02BB318
:1014F00081E090E002C0880F991F6A95E2F780951D
:1015000082238BBB80E0089528B381E090E002C085
:10151000880F991F6A95E2F78095822388BB80E047
:10152000089525B381E090E002C0880F991F6A9565
:10153000E2F78095822385BB80E0089522B381E0A5
:1015400090E002C0880F991F6A95E2F78095822388
:1015500082BB80E008958234A9F018F4813431F020
:101560003BC08334D9F0843429F136C02BB381E0F9
:1015700090E002C0880F991F6A95E2F7822B8BBB1F
:1015800080E0089528B381E090E002C0880F991FA1
:101590006A95E2F7822B88BB80E0089525B381E04D
:1015A00090E002C0880F991F6A95E2F7822B85BBF5
:1015B00080E0089522B381E090E002C0880F991F77
:1015C0006A95E2F7822B82BB80E0089582E008955D
:1015D00083E0089581E0089581E008956830D8F5AA
:1015E0008234A9F018F4813431F037C08334D9F053
:1015F000843429F132C089B390E002C09595879573
:101600006A95E2F78170FA01808380E0089586B3DD
:1016100090E002C0959587956A95E2F78170FA018E
:10162000808380E0089583B390E002C0959587950C
:101630006A95E2F78170FA01808380E0089580B3B3
:1016400090E002C0959587956A95E2F78170FA015E
:10165000808380E0089582E0089581E008956830F5
:1016600008F080C0442321F0413009F440C07CC020
:101670008234B1F018F4813431F078C08334E9F069
:10168000843441F173C02BB381E090E002C0880F35
:10169000991F6A95E2F7809582238BBB80E00895BD
:1016A00028B381E090E002C0880F991F6A95E2F7A5
:1016B0008095822388BB80E0089525B381E090E087
:1016C00002C0880F991F6A95E2F78095822385BB37
:1016D00080E0089522B381E090E002C0880F991F56
:1016E0006A95E2F78095822382BB80E00895823478
:1016F000A9F018F4813431F03BC08334D9F084343C
:1017000029F136C02BB381E090E002C0880F991F09
:101710006A95E2F7822B8BBB80E0089528B381E0C5
:1017200090E002C0880F991F6A95E2F7822B88BB70
:1017300080E0089525B381E090E002C0880F991FF2
:101740006A95E2F7822B85BB80E0089522B381E0A1
:1017500090E002C0880F991F6A95E2F7822B82BB46
:1017600080E0089582E0089583E0089581E008957F
:1017700081E00895813061F018F0823089F015C061
:1017800095B7916095BF95B7926095BF20E00EC068
:1017900095B7946095BF95B7986095BF20E006C057
:1017A00094B7906494BF20E001C021E0813041F003
:1017B00018F0823049F00CC08BB780648BBF09C031
:1017C0008BB780688BBF05C08BB780628BBF01C0B1
:1017D00021E09FB790689FBF822F08956115710522
:1017E000A1F0811105C0709338026093370208950B
:1017F000813029F470933602609335020895823067
:1018000021F4709334026093330208951F920F9273
:101810000FB60F9211242F933F934F935F936F93C3
:101820007F938F939F93AF93BF93EF93FF93E09139
:101830003702F0913802309709F00995FF91EF9146
:10184000BF91AF919F918F917F916F915F914F91D8
:101850003F912F910F900FBE0F901F9018951F92E0
:101860000F920FB60F9211242F933F934F935F93D4
:101870006F937F938F939F93AF93BF93EF93FF9358
:10188000E0913502F0913602309709F00995FF9109
:10189000EF91BF91AF919F918F917F916F915F91E8
:1018A0004F913F912F910F900FBE0F901F90189561
:1018B0001F920F920FB60F9211242F933F934F93C5
:1018C0005F936F937F938F939F93AF93BF93EF93A8
:1018D000FF93E0913302F0913402309709F00995BB
:1018E000FF91EF91BF91AF919F918F917F916F91F8
:1018F0005F914F913F912F910F900FBE0F901F90CE
:10190000189540E064E082E40E94D80940E065E078
:1019100082E40E94D80940E067E082E40E94D8098E
:1019200041E066E082E40E94D8098DB180648DB9FF
:1019300008958FB9779BFECF8FB1089581110EC0A6
:1019400083B7877F83BF83B78F7B83BF89B781606E
:1019500089BF8FB780688FBF80E00895813081F0A4
:10196000823081F485B5877F85BD85B58F7B85BD48
:1019700089B7806489BF8FB780688FBF80E0089582
:1019800080E0089581E008950F931F9381113FC077
:10199000A8EEB3E09A01AB010E949C118B019C015F
:1019A000689413F836952795179507951694D1F7EF
:1019B000DC01CB01072E7CE0B695A795979587951E
:1019C0007A95D1F7702D8093520290935302A09391
:1019D0005402B093550200935102002309F468C0E9
:1019E000019502BF8091520290915302A09154023E
:1019F000B09155020196A11DB11D809352029093A2
:101A00005302A0935402B093550280E058C0813035
:101A100009F450C0823009F04FC0A8EEB3E09A013B
:101A2000AB010E949C118B019C01689413F83695C0
:101A30002795179507951694D1F7AB01BC01032E96
:101A40003CE076956795579547953A95D1F7302DB7
:101A500040934D0250934E0260934F027093500298
:101A6000D901C8019927AA27BB27809349029093DF
:101A70004A02A0934B02B0934C020097A105B10516
:101A8000E9F0819584BD80914D0290914E02A09124
:101A90004F02B09150020196A11DB11D80934D02DD
:101AA00090934E02A0934F02B093500280E007C083
:101AB00080E005C080E003C081E001C080E01F91AC
:101AC0000F91089581110BC083B7846083BF83B7E2
:101AD0008D7F83BF83B78E7F83BF80E00895813081
:101AE00069F0823069F485B5846085BD85B5826012
:101AF00085BD85B58E7F85BD80E0089580E0089521
:101B000081E00895811119C080914202882351F02B
:101B100040E064E084E40E94630A40E065E084E41D
:101B20000E94630A83B78B7F83BF83B78D7F83BF98
:101B300083B78E7F83BF80E00895813069F0823063
:101B400069F485B58B7F85BD85B58D7F85BD85B5F0
:101B50008E7F85BD80E0089580E0089581E008953E
:101B600061157105A1F0811105C070934802609361
:101B700047020895813029F470934602609345022C
:101B80000895823021F470934402609343020895D3
:101B9000811107C089B78E7F89BF89B78D7F89BFC3
:101BA0000AC0813041F0823031F489B78F7B89BF20
:101BB00089B78F7789BF81E00895811104C089B703
:101BC000816089BF07C0813029F0823019F489B75C
:101BD000806489BF81E00895CF92DF92EF92FF92F7
:101BE0000F931F93882309F44BC0813009F448C038
:101BF000823009F045C06A017B010E94C80D82E075
:101C00000E94620DA8EEB3E0A70196010E949C110C
:101C10006B017C01689413F8F694E794D794C79409
:101C20001694D1F78B019C010F2EFCE03695279579
:101C300017950795FA95D1F7F02DCC2051F00F5F4D
:101C40001F4F2F4F3F4FC194C4BC40E050E0BA013A
:101C50000CC014BCFACF08B606FEFDCF88B780646E
:101C600088BF4F5F5F4F6F4F7F4F4017510762072D
:101C7000730788F382E00E94820D82E00E94DD0DEE
:101C800081E01F910F91FF90EF90DF90CF9008952A
:101C90001F920F920FB60F9211242F933F934F93E1
:101CA0005F936F937F938F939F93AF93BF93EF93C4
:101CB000FF9380914202811135C080913E02909144
:101CC0003F02A0914002B09141020196A11DB11DB9
:101CD00080933E0290933F02A0934002B093410252
:101CE00040915202509153026091540270915502FA
:101CF00084179507A607B70709F04AC0E091470285
:101D0000F0914802309709F0099510923E02109226
:101D10003F0210924002109241028091510281953F
:101D200082BF36C080913D028823C9F040E064E064
:101D300084E40E94630A40E065E084E40E94630A50
:101D400080915A02819582BF80915A0290915B02E4
:101D50008F3F910509F0E0F410923D0219C041E077
:101D600064E084E40E94630A41E065E084E40E9448
:101D7000630A80915802819582BF809158029091A8
:101D800059028F3F910509F018F481E080933D02DC
:101D9000FF91EF91BF91AF919F918F917F916F9143
:101DA0005F914F913F912F910F900FBE0F901F9019
:101DB00018951F920F920FB60F9211242F933F93F5
:101DC0004F935F936F937F938F939F93AF93BF9343
:101DD000EF93FF938091390290913A02A0913B02D8
:101DE000B0913C020196A11DB11D809339029093E0
:101DF0003A02A0933B02B0933C0240914D025091B5
:101E00004E0260914F027091500284179507A60709
:101E1000B70799F4E0914302F0914402309709F03A
:101E200009951092390210923A0210923B021092D8
:101E30003C0280914902819582BFFF91EF91BF9151
:101E4000AF919F918F917F916F915F914F913F9152
:101E50002F910F900FBE0F901F9018955058BB27D1
:101E6000AA270E94460F0C94B9100E94AB1038F0BC
:101E70000E94B21020F039F49F3F19F426F40C941C
:101E8000A8100EF4E095E7FB0C94A210E92F0E9435
:101E9000CA1058F3BA17620773078407950720F032
:101EA00079F4A6F50C94EC100EF4E0950B2EBA2FF5
:101EB000A02D0B01B90190010C01CA01A001112450
:101EC000FF27591B99F0593F50F4503E68F11A16FC
:101ED000F040A22F232F342F4427585FF3CF46958D
:101EE00037952795A795F0405395C9F77EF41F16AF
:101EF000BA0B620B730B840BBAF09150A1F0FF0F79
:101F0000BB1F661F771F881FC2F70EC0BA0F621F64
:101F1000731F841F48F4879577956795B795F79554
:101F20009E3F08F0B0CF9395880F08F09927EE0FE9
:101F30009795879508950E947E1008F481E0089592
:101F40000E94B40F0C94B9100E94B21058F00E9475
:101F5000AB1040F029F45F3F29F00C94A21051110E
:101F60000C94ED100C94A8100E94CA1068F39923E9
:101F7000B1F3552391F3951B550BBB27AA27621785
:101F80007307840738F09F5F5F4F220F331F441F92
:101F9000AA1FA9F335D00E2E3AF0E0E832D09150C6
:101FA0005040E695001CCAF72BD0FE2F29D0660FB3
:101FB000771F881FBB1F261737074807AB07B0E8F6
:101FC00009F0BB0B802DBF01FF2793585F4F3AF0FC
:101FD0009E3F510578F00C94A2100C94ED105F3FD9
:101FE000E4F3983ED4F3869577956795B795F79582
:101FF0009F5FC9F7880F911D9695879597F908956A
:10200000E1E0660F771F881FBB1F62177307840705
:10201000BA0720F0621B730B840BBA0BEE1F88F714
:10202000E09508950E94D21088F09F5798F0B92F3C
:102030009927B751B0F0E1F0660F771F881F991FFD
:102040001AF0BA95C9F714C0B13091F00E94EC10A3
:10205000B1E008950C94EC10672F782F8827B85FB3
:1020600039F0B93FCCF3869577956795B395D9F755
:102070003EF490958095709561957F4F8F4F9F4F5F
:102080000895E89409C097FB3EF49095809570956B
:1020900061957F4F8F4F9F4F9923A9F0F92F96E9B4
:1020A000BB279395F695879577956795B795F11129
:1020B000F8CFFAF4BB0F11F460FF1BC06F5F7F4FC6
:1020C0008F4F9F4F16C0882311F096E911C07723D8
:1020D00021F09EE8872F762F05C0662371F096E8E1
:1020E000862F70E060E02AF09A95660F771F881FB0
:1020F000DAF7880F9695879597F90895990F000854
:10210000550FAA0BE0E8FEEF16161706E807F907C9
:10211000C0F012161306E407F50798F0621B730B64
:10212000840B950B39F40A2661F0232B242B252BE5
:1021300021F408950A2609F4A140A6958FEF811D88
:10214000811D089597F99F6780E870E060E0089529
:102150009FEF80EC089500240A94161617061806BF
:102160000906089500240A9412161306140605069B
:102170000895092E0394000C11F4882352F0BB0F2C
:1021800040F4BF2B11F460FF04C06F5F7F4F8F4F8F
:102190009F4F089557FD9058440F551F59F05F3FCA
:1021A00071F04795880F97FB991F61F09F3F79F079
:1021B00087950895121613061406551FF2CF4695FB
:1021C000F1DF08C0161617061806991FF1CF86957D
:1021D0007105610508940895E894BB276627772761
:1021E000CB0197F908950E947E1008F48FEF0895AF
:1021F0000E940B110C94B9100E94AB1038F00E9491
:10220000B21020F0952311F00C94A2100C94A81099
:1022100011240C94ED100E94CA1070F3959FC1F325
:10222000950F50E0551F629FF001729FBB27F00D84
:10223000B11D639FAA27F00DB11DAA1F649F6627D9
:10224000B00DA11D661F829F2227B00DA11D621F28
:10225000739FB00DA11D621F839FA00D611D221FE2
:10226000749F3327A00D611D231F849F600D211DC6
:10227000822F762F6A2F11249F5750409AF0F1F049
:1022800088234AF0EE0FFF1FBB1F661F771F881FB2
:1022900091505040A9F79E3F510580F00C94A21038
:1022A0000C94ED105F3FE4F3983ED4F38695779558
:1022B0006795B795F795E7959F5FC1F7FE2B880F58
:1022C000911D9695879597F90895A1E21A2EAA1B5C
:1022D000BB1BFD010DC0AA1FBB1FEE1FFF1FA217D6
:1022E000B307E407F50720F0A21BB30BE40BF50BD3
:1022F000661F771F881F991F1A9469F7609570955C
:10230000809590959B01AC01BD01CF010895EE0F22
:10231000FF1F0590F491E02D0994A29FB001B39F97
:10232000C001A39F700D811D1124911DB29F700DDE
:10233000811D1124911D08950E948D11A59F900D5E
:10234000B49F900DA49F800D911D11240895FB0151
:10235000DC018D91019080190110D9F3990B08953A
:10236000FB01DC0101900D920020E1F70895F89443
:02237000FFCF9D
:102372000000FA4400313131313030303031313106
:1023820031303030300000000050C347013030306F
:1023920030313131313030303031313131000000C3
:1023A2000000C84200313131313232323231313102
:1023B200313232323200000000401C4500323232EB
:1023C2003231313131323232323131313100000089
:1023D2000060EA4600323232323333333332323241
:1023E20032333333330000000000000000000000ED
:1023F20000000000000000000000000000000000DB
:1024020000000000000000000000000000000000CA
:1024120000000000000000000000000000000000BA
:1024220000000000000000000000000000000000AA
:10243200000000000000000000000000000000009A
:10244200000000000000000000000000000000008A
:10245200000000000000000000000000000000007A
:10246200420357656C636F6D6520746F2041544D54
:1024720000496E7365727420612043617264004585
:102482006E74657220596F75722050696E002A0051
:10249200526563656976696E6700456E7465722080
:1024A200416D6F756E7400546869732069732061A1
:1024B2002000667261756420636172640054686909
:1024C2007320636172642069730073746F6C656E4C
:1024D200004D6178696D756D204C696D6974206974
:1024E2007300457863656564656400496E7375665B
:1024F20066696369656E740066756E64004170702A
:10250200726F76656420007472616E7361637469C0
:102512006F6E0052656D61696E696E672042616C13
:10252200616E636500456A656374696E6720436125
:10253200726400414C41524D0030303030302E3008
:02254200300067
:00000001FF
