:100000000C942A000C9451020C947A020C94A302D2
:100010000C9447000C94D3040C9447000C944700B4
:100020000C9447000C9447000C9447000C94420435
:100030000C9447000C9447000C9447000C94470024
:100040000C9447000C9447000C9447000C94470014
:100050000C94470011241FBECFE5D8E0DEBFCDBF12
:1000600010E0A0E6B0E0E8E8FAE002C005900D92EA
:10007000A036B107D9F720E0A0E6B0E001C01D929C
:10008000A938B207E1F70E94B6000C9442050C941F
:100090000000809160008F5F80936000089582E08F
:1000A0000E94CC0282E00E94C80382E00E9490037A
:1000B00069E470E082E00E94B00341E066E084E41D
:1000C0000E94B90041E067E084E40E94B90041E683
:1000D00050E062E082E40E94AA00809161008823DF
:1000E000B1F34CE350E060E070E082E00E94EC038A
:1000F00041E650E062E082E40E94AA008091610043
:10010000882329F344E650E060E070E082E00E943A
:10011000F20282E00E94DD0306C041E650E062E0A8
:1001200082E40E94AA00809161008111F6CF809143
:100130006000843128F066E084E40E94CF0104C0AE
:1001400067E084E40E94CF0182E00E94C80310921D
:100150006000BDCF853430F4683030F40E94100266
:1001600080E0089581E0089582E008950E944F00A4
:10017000FFCF683008F080C0442321F0413009F4FB
:1001800040C07CC08234B1F018F4813431F078C0C2
:100190008334E9F0843441F173C02AB381E090E004
:1001A00002C0880F991F6A95E2F7809582238ABB67
:1001B00080E0089527B381E090E002C0880F991F86
:1001C0006A95E2F78095822387BB80E0089524B387
:1001D00081E090E002C0880F991F6A95E2F7809550
:1001E000822384BB80E0089521B381E090E002C0C7
:1001F000880F991F6A95E2F78095822381BB80E082
:1002000008958234A9F018F4813431F03BC083346E
:10021000D9F0843429F136C02AB381E090E002C0DD
:10022000880F991F6A95E2F7822B8ABB80E00895B8
:1002300027B381E090E002C0880F991F6A95E2F72A
:10024000822B87BB80E0089524B381E090E002C058
:10025000880F991F6A95E2F7822B84BB80E008958E
:1002600021B381E090E002C0880F991F6A95E2F700
:10027000822B81BB80E0089582E0089584E0089598
:1002800081E0089581E00895683008F080C044233B
:1002900021F0413009F440C07CC08234B1F018F440
:1002A000813431F078C08334E9F0843441F173C093
:1002B0002BB381E090E002C0880F991F6A95E2F7A6
:1002C000809582238BBB80E0089528B381E090E085
:1002D00002C0880F991F6A95E2F78095822388BB38
:1002E00080E0089525B381E090E002C0880F991F57
:1002F0006A95E2F78095822385BB80E0089522B35A
:1003000081E090E002C0880F991F6A95E2F780951E
:10031000822382BB80E008958234A9F018F48134EE
:1003200031F03BC08334D9F0843429F136C02BB38B
:1003300081E090E002C0880F991F6A95E2F7822B56
:100340008BBB80E0089528B381E090E002C0880F65
:10035000991F6A95E2F7822B88BB80E0089525B348
:1003600081E090E002C0880F991F6A95E2F7822B26
:1003700085BB80E0089522B381E090E002C0880F41
:10038000991F6A95E2F7822B82BB80E0089582E094
:10039000089583E0089581E0089581E0089568302C
:1003A000D8F58234A9F018F4813431F037C08334A1
:1003B000D9F0843429F132C02BB381E090E002C03F
:1003C000880F991F6A95E2F782278BBB80E008951A
:1003D00028B381E090E002C0880F991F6A95E2F788
:1003E000822788BB80E0089525B381E090E002C0B9
:1003F000880F991F6A95E2F7822785BB80E00895F0
:1004000022B381E090E002C0880F991F6A95E2F75D
:10041000822782BB80E0089582E0089581E00895FC
:100420006830D8F58234A9F018F4813431F037C03F
:100430008334D9F0843429F132C089B390E002C00A
:10044000959587956A95E2F78170FA01808380E03F
:10045000089586B390E002C0959587956A95E2F776
:100460008170FA01808380E0089583B390E002C038
:10047000959587956A95E2F78170FA01808380E00F
:10048000089580B390E002C0959587956A95E2F74C
:100490008170FA01808380E0089582E0089581E010
:1004A00008951F920F920FB60F9211242F933F932E
:1004B0004F935F936F937F938F939F93AF93BF936C
:1004C000EF93FF93E0916600F0916700309709F099
:1004D0000995FF91EF91BF91AF919F918F917F917E
:1004E0006F915F914F913F912F910F900FBE0F90A1
:1004F0001F9018951F920F920FB60F9211242F93F1
:100500003F934F935F936F937F938F939F93AF939B
:10051000BF93EF93FF93E0916400F09165003097F3
:1005200009F00995FF91EF91BF91AF919F918F9144
:100530007F916F915F914F913F912F910F900FBEDF
:100540000F901F9018951F920F920FB60F921124C3
:100550002F933F934F935F936F937F938F939F93CB
:10056000AF93BF93EF93FF93E0916200F09163002C
:10057000309709F00995FF91EF91BF91AF919F914D
:100580008F917F916F915F914F913F912F910F903C
:100590000FBE0F901F90189581110EC083B7877FF3
:1005A00083BF83B78F7B83BF89B7816089BF8FB7D4
:1005B00080688FBF80E00895813081F0823081F4BF
:1005C00085B5877F85BD85B58F7B85BD89B78064FF
:1005D00089BF8FB780688FBF80E0089580E008955D
:1005E00081E008950F931F9381113FC0A8EEB3E0FF
:1005F0009A01AB010E9437058B019C01689413F8A6
:1006000036952795179507951694D1F7DC01CB0100
:10061000072E7CE0B695A795979587957A95D1F7A3
:10062000702D8093810090938200A0938300B093FB
:10063000840000938000002309F468C0019502BF84
:100640008091810090918200A0918300B0918400FC
:100650000196A11DB11D8093810090938200A0930B
:100660008300B093840080E058C0813009F450C00A
:10067000823009F04FC0A8EEB3E09A01AB010E94AE
:1006800037058B019C01689413F8369527951795CB
:1006900007951694D1F7AB01BC01032E3CE076958B
:1006A0006795579547953A95D1F7302D40937C0043
:1006B00050937D0060937E0070937F00D901C80144
:1006C0009927AA27BB278093780090937900A0935D
:1006D0007A00B0937B000097A105B105E9F0819500
:1006E00084BD80917C0090917D00A0917E00B091AE
:1006F0007F000196A11DB11D80937C0090937D0029
:10070000A0937E00B0937F0080E007C080E005C02A
:1007100080E003C081E001C080E01F910F91089547
:1007200081110BC083B7846083BF83B78D7F83BF84
:1007300083B78E7F83BF80E00895813069F0823077
:1007400069F485B5846085BD85B5826085BD85B554
:100750008E7F85BD80E0089580E0089581E0089552
:1007600061157105A1F0811105C070937700609348
:1007700076000895813029F47093750060937400B9
:100780000895823021F4709373006093720008958D
:10079000811107C089B78E7F89BF89B78D7F89BFD7
:1007A0000AC0813041F0823031F489B78F7B89BF34
:1007B00089B78F7789BF81E00895811104C089B717
:1007C000816089BF07C0813029F0823019F489B770
:1007D000806489BF81E00895CF92DF92EF92FF920B
:1007E0000F931F93882309F445C0813009F442C058
:1007F000823009F03FC06A017B010E94C803A8EE65
:10080000B3E0A70196010E9437056B017C01689453
:1008100013F8F694E794D794C7941694D1F78B0104
:100820009C010F2EFCE03695279517950795FA95B4
:10083000D1F7F02DCC2051F00F5F1F4F2F4F3F4FBE
:10084000C194C4BC40E050E0BA010CC014BCFACF63
:1008500008B606FEFDCF88B7806488BF4F5F5F4F44
:100860006F4F7F4F401751076207730788F382E08D
:100870000E94DD0381E01F910F91FF90EF90DF90C8
:10088000CF9008951F920F920FB60F9211242F93BD
:100890003F934F935F936F937F938F939F93AF9308
:1008A000BF93EF93FF9380917100811135C08091C8
:1008B0006D0090916E00A0916F00B0917000019654
:1008C000A11DB11D80936D0090936E00A0936F00E9
:1008D000B09370004091810050918200609183003C
:1008E0007091840084179507A607B70709F04AC0DE
:1008F000E0917600F0917700309709F00995109219
:100900006D0010926E0010926F0010927000809136
:100910008000819582BF36C080916C008823C9F029
:1009200040E064E084E40E94440140E065E084E447
:100930000E94440180918700819582BF8091870049
:10094000909188008F3F910509F0E0F410926C00BF
:1009500019C041E064E084E40E94440141E065E0A4
:1009600084E40E94440180918500819582BF80913A
:100970008500909186008F3F910509F018F481E081
:1009800080936C00FF91EF91BF91AF919F918F91F8
:100990007F916F915F914F913F912F910F900FBE7B
:1009A0000F901F9018951F920F920FB60F9211245F
:1009B0002F933F934F935F936F937F938F939F9367
:1009C000AF93BF93EF93FF9380916800909169007C
:1009D000A0916A00B0916B000196A11DB11D80939A
:1009E000680090936900A0936A00B0936B004091F7
:1009F0007C0050917D0060917E0070917F00841793
:100A00009507A607B70799F4E0917200F09173007B
:100A1000309709F0099510926800109269001092C1
:100A20006A0010926B0080917800819582BFFF91DF
:100A3000EF91BF91AF919F918F917F916F915F9156
:100A40004F913F912F910F900FBE0F901F901895CF
:100A5000A29FB001B39FC001A39F700D811D1124FF
:100A6000911DB29F700D811D1124911D08950E944A
:100A70002805A59F900DB49F900DA49F800D911DFA
:080A800011240895F894FFCF42
:00000001FF
